:020000040800F2
:1000000000280020B1160008411600084716000815
:100010004D1600085316000859160008000000008D
:100020000000000000000000000000005F16000853
:100030006B16000800000000771600088316000801
:10004000F9160008F9160008F9160008F916000854
:10005000F9160008F9160008F9160008F916000844
:10006000F9160008F9160008F9160008F916000834
:10007000F9160008F9160008F9160008F916000824
:10008000F9160008F9160008F9160008F916000814
:10009000F9160008F9160008F9160008F916000804
:1000A000F9160008F9160008F9160008F9160008F4
:1000B00091160008F916000800000000F916000863
:1000C000F91600080000000000000000F916000802
:1000D00000000000F9160008F916000800000000F2
:1000E000F9160008F9160008F916000800000000CB
:1000F0000000000000000000000000000000000000
:0C01000000000000000000005FF808F1A3
:10010C0010B5054C237833B9044B13B10448AFF345
:10011C0000800123237010BD20000020000000008F
:10012C00282D000808B5034B1BB103490348AFF356
:10013C00008008BD0000000024000020282D0008CD
:10014C0080B582B000AF78607B68002B22D1002292
:10015C000121BD4801F0CDFD00220221BA4801F079
:10016C00C8FD00220421B84801F0C3FD002208217B
:10017C00B54801F0BEFD00221021B34801F0B9FDD5
:10018C0000222021B04801F0B4FD01224021AE48EC
:10019C0001F0AFFD7B68012B22D101220121AA487D
:1001AC0001F0A7FD00220221A74801F0A2FD0022C8
:1001BC000421A54801F09DFD01220821A24801F06F
:1001CC0098FD01221021A04801F093FD012220216D
:1001DC009D4801F08EFD012240219B4801F089FDD4
:1001EC007B68022B22D100220121974801F081FD6E
:1001FC0000220221944801F07CFD01220421924846
:10020C0001F077FD002208218F4801F072FD0022D9
:10021C0010218D4801F06DFD012220218A4801F04A
:10022C0068FD00224021884801F063FD7B68032BA8
:10023C0022D100220121844801F05BFD0022022121
:10024C00814801F056FD002204217F4801F051FD48
:10025C00002208217C4801F04CFD012210217A4833
:10026C0001F047FD01222021774801F042FD0022D8
:10027C004021754801F03DFD7B68042B22D1012201
:10028C000121714801F035FD002202216E4801F078
:10029C0030FD002204216C4801F02BFD01220821C5
:1002AC00694801F026FD01221021674801F021FD6B
:1002BC0000222021644801F01CFD002240216248EC
:1002CC0001F017FD7B68052B22D1002201215E482D
:1002DC0001F00FFD012202215B4801F00AFD002212
:1002EC000421594801F005FD00220821564801F06F
:1002FC0000FD01221021544801F0FBFC00222021BA
:10030C00514801F0F6FC002240214F4801F0F1FC6D
:10031C007B68062B22D1002201214B4801F0E9FC1D
:10032C0001220221484801F0E4FC00220421464845
:10033C0001F0DFFC00220821434801F0DAFC002226
:10034C001021414801F0D5FC002220213E4801F04B
:10035C00D0FC002240213C4801F0CBFC7B68072BF1
:10036C0022D100220121384801F0C3FC00220221D5
:10037C00354801F0BEFC00220421334801F0B9FCE1
:10038C0001220821304801F0B4FC012210212E4832
:10039C0001F0AFFC012220212B4801F0AAFC012224
:1003AC004021294801F0A5FC7B68082B22D10022B2
:1003BC000121254801F09DFC00220221224801F078
:1003CC0098FC00220421204801F093FC0022082113
:1003DC001D4801F08EFC002210211B4801F089FC05
:1003EC0000222021184801F084FC002240211648EC
:1003FC0001F07FFC7B68092B22D1002201211248DD
:10040C0001F077FC002202210F4801F072FC00225F
:10041C0004210D4801F06DFC002208210A4801F06E
:10042C0068FC01221021084801F063FC0022202105
:10043C00054801F05EFC00224021034801F059FC04
:10044C0000BF0837BD4680BD000C014080B582B0AE
:10045C0000AF786001224FF48051214801F049FC33
:10046C0001224FF400511E4801F043FC01224FF4CD
:10047C0080411B4801F03DFC01224FF4004118481B
:10048C0001F037FC7B68032B26D801A252F823F02D
:10049C00AD040008BB040008C9040008D704000818
:1004AC0000224FF480510E4801F023FC14E000228E
:1004BC004FF400510A4801F01CFC0DE000224FF4EF
:1004CC008041074801F015FC06E000224FF4004182
:1004DC00034801F00EFC00BF00BF0837BD4680BDCD
:1004EC000008014080B582B000AF01224FF480516A
:1004FC00194801F0FEFB01224FF40051164801F09F
:10050C00F8FB01224FF48041134801F0F2FB012269
:10051C004FF40041104801F0ECFB104B1B68104AE3
:10052C0052F823307B607868FFF70AFE0B4B1B6890
:10053C001846FFF78BFF094B1B680133074A136002
:10054C00064B1B68032B02DD044B00221A6000BF14
:10055C000837BD4680BD00BF000801404C0000209C
:10056C003C00002080B483B000AF786039607B68B9
:10057C00184A82FB03129210DB17D31A164A136027
:10058C007968144B83FB01239A10CB17D21A1346AC
:10059C009B0013445B00CA1A0F4B5A603B680D4A10
:1005AC0082FB03129210DB17D31A0B4A9360396843
:1005BC00084B83FB01239A10CB17D21A13469B00CE
:1005CC0013445B00CA1A044BDA6000BF0C37BD46FB
:1005DC0080BC7047676666663C00002080B500AF43
:1005EC00044B1B68044A126811461846FFF7BAFF01
:1005FC0000BF80BDB4000020B800002080B483B0E0
:10060C0000AF00237B6025E0174A7B68012142F88C
:10061C002310164A7B68012142F82310144A7B6888
:10062C00012142F82310134A7B68012142F8231060
:10063C00114A7B68C82142F82310104A7B680021BC
:10064C0042F823100E4A7B68002142F823107B6885
:10065C0001337B607B68022BD6DD00BF00BF0C37FB
:10066C00BD4680BC704700BF500000205C000020DD
:10067C006800002074000020800000208C00002006
:10068C009800002080B582B000AF00237B6099E019
:10069C00514A7B6852F8232050497B6841F823204B
:1006AC004F4A7B6852F823204B497B6841F8232042
:1006BC007B68022B20D07B68022B29DC7B68002B0B
:1006CC0003D07B68012B0BD022E08021454801F040
:1006DC00F9FA03461946424A7B6842F8231018E09F
:1006EC004FF480713F4801F0EDFA034619463C4A3D
:1006FC007B6842F823100CE04FF40071394801F08C
:10070C00E1FA03461946364A7B6842F8231000E0AA
:10071C0000BF324A7B6852F823202F497B6851F87E
:10072C0023309A424BD12C4A7B6852F823202C4917
:10073C007B6851F823309A4241D12B4A7B6852F89E
:10074C00232027497B6851F823309A4218D0244A39
:10075C007B6852F8232024497B6841F82320204AE7
:10076C007B6852F82330002B29D1204A7B68012169
:10077C0042F823101E4A7B68C82142F823101EE061
:10078C00194A7B6852F82330002B18D1184A7B6821
:10079C0052F823305A1E16497B6841F82320144A1C
:1007AC007B6852F82330002B09DC124A7B6801214C
:1007BC0042F823100E4A7B68C82142F823107B684C
:1007CC0001337B607B68022B7FF762AF00BF00BFF9
:1007DC000837BD4680BD00BF5C00002050000020E3
:1007EC0068000020000C0140740000208C000020E8
:1007FC00800000209800002080B483B000AF7860A7
:10080C007B68022B01DD00230DE0094A7B6852F85E
:10081C002330012B06D1064A7B68002142F82310B5
:10082C00012300E0002318460C37BD4680BC7047FE
:10083C008C00002080B483B000AF78607B68022B02
:10084C0001DD00230DE0094A7B6852F82330012BAF
:10085C0006D1064A7B68002142F82310012300E0F0
:10086C00002318460C37BD4680BC7047980000200A
:10087C0080B500AF764B1B68002B0BDD744B1B68EF
:10088C006333744A82FB03125211DB17D31A724A78
:10089C00136002E0704B00221A60704B1B68002B37
:1008AC000BDD6E4B1B6863336A4A82FB03125211D9
:1008BC00DB17D31A6A4A136002E0694B00221A60F4
:1008CC00FFF78CFE674B1B68013B042B00F2B280D8
:1008DC0001A252F823F000BFF9080008290900080A
:1008EC006F090008C70900080D0A000800F016FB84
:1008FC0000F0A0FA00F0CAFA5B4B1B68642202FB02
:10090C0003F3534A1360594B1B68642202FB03F335
:10091C00524A1360534B02221A6096E04C4B1B68F0
:10092C00002B04DD4A4B1B68013B494A13604B4BBF
:10093C001B68002B04DD494B1B68013B474A1360C5
:10094C00434B1B68002B79DC00F08AFA484B1B6880
:10095C00642202FB03F33E4A1360424B03221A60EB
:10096C006CE03B4B1B68002B04DD394B1B68013BD7
:10097C00374A1360394B1B68002B04DD374B1B685F
:10098C00013B364A1360324B1B68002B58DC00F0DD
:10099C003BFA00F093FA354B1B68642202FB03F31D
:1009AC002B4A1360304B1B68642202FB03F32B4A67
:1009BC0013602C4B04221A6042E0254B1B68002B61
:1009CC0004DD234B1B68013B214A1360234B1B683E
:1009DC00002B04DD214B1B68013B204A13601F4B8D
:1009EC001B68002B2EDC00F081FA214B1B68642263
:1009FC0002FB03F3194A13601A4B05221A6021E01B
:100A0C00134B1B68002B04DD114B1B68013B104A78
:100A1C001360124B1B68002B04DD104B1B68013B51
:100A2C000E4A13600D4B1B68002B0DDC0D4B012285
:100A3C001A6009E00B4B01221A6006E000BF04E0CB
:100A4C0000BF02E000BF00E000BF00BF80BD00BFE0
:100A5C00A40000201F85EB51B4000020A80000204A
:100A6C00B800002004000020100000200800002026
:100A7C000C00002080B500AF8F4B1B680A3B042B89
:100A8C0000F29F8101A252F823F000BFAD0A0008CA
:100A9C00CF0D0008E10A0008F10C0008D10B00088A
:100AAC00FFF7E6FE0020FFF7A7FE0346012B40F000
:100ABC008C81814B0C221A60804B1B68804A13601E
:100ACC00804B19221A60804B4FF47A721A6000F036
:100ADC0025FA7AE17B4B1B68013B7A4A1360794B10
:100AEC001B68002B06DC4021784801F01AF9754B85
:100AFC0019221A60724B1B6819460220FFF732FD4F
:100B0C00714B1B68013B704A13606F4B1B68002BC9
:100B1C0005DC694B0A221A606D4B01221A60002019
:100B2C00FFF76AFE0346012B0CD1634B0E221A60B1
:100B3C00684B1B68684A1360634B4FF47A721A60F7
:100B4C0000F0ECF90120FFF757FE0346012B05D00E
:100B5C000120FFF76FFE0346012B0FD1584B1B688A
:100B6C000133574A1360564B1B68632B02DD544B01
:100B7C0001221A60544B4FF47A721A600220FFF76C
:100B8C003BFE0346012B40F02281534B1A68534B1A
:100B9C001B681A444A4B1B689A4240F01881484B18
:100BAC001B68464A13604C4B1B684A4A13604B4BFC
:100BBC001B684B4A1360404B0A221A60444B0122BB
:100BCC001A6004E13F4B1B68013B3E4A13603D4BEE
:100BDC001B68002B07DC4FF480713C4801F0A1F836
:100BEC00384B19221A603C4B1B6819460320FFF73F
:100BFC00B9FC354B1B68013B334A1360324B1B6805
:100C0C00002B05DC2C4B0A221A60314B01221A6096
:100C1C000020FFF7F1FD0346012B0CD1264B0D22D2
:100C2C001A602F4B1B682D4A1360274B4FF47A72B6
:100C3C001A6000F073F90120FFF7DEFD0346012B6B
:100C4C0005D00120FFF7F6FD0346012B0FD1224BF7
:100C5C001B680133204A13601F4B1B68632B02DD9A
:100C6C001D4B01221A60184B4FF47A721A60022045
:100C7C00FFF7C2FD0346012B40F0AB80164B1A6800
:100C8C00164B1B681A440E4B1B689A4240F0A1800D
:100C9C000B4B1B68094A13600F4B1B680D4A136002
:100CAC000E4B1B680E4A1360034B0A221A60084B4A
:100CBC0001221A608DE000BF000000200800002017
:100CCC00BC000020AC000020B00000200008014057
:100CDC000400002010000020C0000020C4000020F0
:100CEC000C0000203D4B1B68013B3C4A13603B4B06
:100CFC001B68002B06DC8021394801F012F8374BB9
:100D0C0019221A60374B1B6819460420FFF72AFC7E
:100D1C00354B1B68013B344A1360334B1B68002B6B
:100D2C0005DC324B0A221A60314B01221A6000207A
:100D3C00FFF762FD0346012B05D12C4B0A221A60EA
:100D4C002B4B01221A600120FFF756FD0346012BA5
:100D5C0005D00120FFF76EFD0346012B0FD1214B6F
:100D6C001B6801331F4A13601E4B1B68632B02DD8B
:100D7C001C4B01221A601C4B4FF47A721A60022031
:100D8C00FFF73AFD0346012B25D11A4B1A68154B78
:100D9C001B681A44184B1B689A421CD1164B1B68D3
:100DAC00164A1360134B1B68154A13600D4B1B68D6
:100DBC00144A13600D4B0A221A600D4B01221A6063
:100DCC0009E00A4B0A221A6006E000BF04E000BFEB
:100DDC0002E000BF00E000BF00BF80BDAC000020FF
:100DEC0000080140C4000020B000002000000020DA
:100DFC0004000020C0000020BC00002008000020DF
:100E0C00100000200C00002080B500AF0022402113
:100E1C00074800F06EFF01228021054800F069FFB1
:100E2C0001224FF48071024800F063FF00BF80BDC7
:100E3C000008014080B500AF01224021074800F0B6
:100E4C0058FF01228021054800F053FF00224FF487
:100E5C008071024800F04DFF00BF80BD00080140CA
:100E6C0080B500AF01224021074800F042FF00226C
:100E7C008021054800F03DFF01224FF480710248AB
:100E8C0000F037FF00BF80BD0008014080B500AF07
:100E9C0000224FF40071084800F02BFF01224FF4A0
:100EAC008061054800F025FF01224FF400610248E3
:100EBC0000F01FFF00BF80BD0008014080B500AFEF
:100ECC0001224FF40071084800F013FF01224FF487
:100EDC008061054800F00DFF00224FF400610248CC
:100EEC0000F007FF00BF80BD0008014080B500AFD7
:100EFC0001224FF40071084800F0FBFE00224FF471
:100F0C008061054800F0F5FE01224FF400610248B3
:100F1C0000F0EFFE00BF80BD0008014080B500AFBF
:100F2C0001224021104800F0E4FE012280210E48ED
:100F3C0000F0DFFE01224FF480710B4800F0D9FE67
:100F4C0001224FF40071084800F0D3FE01224FF447
:100F5C008061054800F0CDFE01224FF4006102488B
:100F6C0000F0C7FE00BF80BD0008014080B500AF97
:100F7C0000F0BEFB00F026F800F0ACF800F05EF8D4
:100F8C000C4801F013FB00F016F9FFF737FB0222B7
:100F9C000021094800F024F901220121074800F042
:100FAC001FF901220021064800F01AF900F016FA88
:100FBC00FCE700BFD000002091060008F1040008F7
:100FCC00810A000880B590B000AF07F11803282201
:100FDC000021184601F09AFE3B1D00221A605A604F
:100FEC009A60DA601A610223BB610123BB62102391
:100FFC00FB6200237B6307F11803184600F0AAFE7E
:10100C000346002B01D000F0D1F80F237B600023A6
:10101C00BB600023FB6000233B6100237B613B1D15
:10102C000021184601F016F90346002B01D000F000
:10103C00BDF800BF4037BD4680BD000080B586B00E
:10104C0000AF07F1080300221A605A609A60DA6058
:10105C003B4600221A605A601D4B4FF080421A60CA
:10106C001B4B41F63F725A60194B00229A60184B89
:10107C000922DA60164B00221A61154B00229A6184
:10108C00134801F043FA0346002B01D000F08EF810
:10109C004FF48053BB6007F1080319460C4801F06C
:1010AC00C1FB0346002B01D000F080F800233B600D
:1010BC0000237B603B461946054801F099FD034629
:1010CC00002B01D000F072F800BF1837BD4680BD70
:1010DC00D000002080B586B000AF07F108030022D5
:1010EC001A605A609A60DA60284B9B69274A43F071
:1010FC0004039361254B9B6903F004037B607B68BD
:10110C00224B9B69214A43F0080393611F4B9B6957
:10111C0003F008033B603B6800224FF6E0711C486B
:10112C0000F0E7FD00227F211A4800F0E2FD4FF6A7
:10113C00E073BB600123FB6000233B6102237B61F6
:10114C0007F108031946124800F042FC7F23BB60EC
:10115C000123FB6000233B6102237B6107F1080341
:10116C0019460C4800F034FC4FF46073BB6000234C
:10117C00FB6001233B6107F108031946054800F0A9
:10118C0027FC00BF1837BD4680BD00BF00100240D1
:10119C0000080140000C014080B582B000AF7860BF
:1011AC0000F0F0F800BF0837BD4680BD80B400AF3A
:1011BC0072B600BFFEE780B582B000AF0023FB71B2
:1011CC0006E0FB79184600F047F9FB790133FB7117
:1011DC00FB79092BF5D900BF00BF0837BD4680BD90
:1011EC0080B489B000AFF860B9607A600023FB77F7
:1011FC0002E0FB7F0133FB77FA7F5F4913465B000C
:10120C001344DB000B441B68002B02D0FB7F092B23
:10121C00EFD9FB7F0A2B03D1584B01221A60A7E0B0
:10122C00FA7F554913465B001344DB000B44FA6804
:10123C001A60FA7F504913465B001344DB000B44E1
:10124C000433BA681A60FA7F4B4913465B001344A7
:10125C00DB000B4408337A681A60FA7F4649134660
:10126C005B001344DB000B440C3300221A70FA7F32
:10127C00F97F414813465B001344DB0003441033F1
:10128C001960FA7F3C4913465B001344DB000B44A6
:10129C00143300221A6072B600BF394B1B68002B46
:1012AC0005D0374B1B685B68BA689A4220D2FA7F2C
:1012BC00334B1968304813465B001344DB0003447E
:1012CC00143319602E4B1B68002B07D02C4B1B685A
:1012DC0059682B4B1B68BA688A1A5A60FA7F1346F6
:1012EC005B001344DB00244A1344254A13603DE0A1
:1012FC00234B1B68BB6100237B6109E0BB695B6806
:10130C00BA68D31ABB60BB697B61BB695B69BB61A3
:10131C00BB69002B04D0BB695B68BA689A42EDD2FA
:10132C00FA7F154913465B001344DB000B4414335E
:10133C00BA691A60FA7F13465B001344DB000E4A4D
:10134C001A447B695A61FA7F0B4913465B001344BC
:10135C00DB000B440433BA681A60BB69002B05D060
:10136C00BB695A68BB68D21ABB695A6062B600BFC7
:10137C002437BD4680BC704718010020C8000020EF
:10138C00CC00002080B483B000AF134B1B68002B43
:10139C001DD0114B1B685B68002B04D00E4B1B68D7
:1013AC005A68013A5A600C4B1B687B6008E07B68FA
:1013BC001B7B0133DAB27B681A737B685B697B60D9
:1013CC007B68002B03D07B685B68002BEFD000BFE1
:1013DC000C37BD4680BC7047CC00002080B584B073
:1013EC0000AF28E01B4B1B681B689847194B1B6808
:1013FC001A7B184B1B68013AD2B21A73154B1B6837
:10140C00FB60144B1B685B69124A1360FB681B681A
:10141C00BB60FB689B687B60FB6800221A60FB6802
:10142C0000225A61FB689B68002B04D07A687968AB
:10143C00B868FFF7D5FE074B1B68002B04D0054B93
:10144C001B681B7B002BCDD100F096F800BF10372A
:10145C00BD4680BDCC00002080B485B000AF0346F3
:10146C00FB71434B1B68002B7AD0FB79092B77D887
:10147C00FA79404913465B001344DB000B441B68AC
:10148C00002B6DD03A4B1B68FB600023BB6004E063
:10149C00FB68BB60FB685B69FB60FB68002B04D0DE
:1014AC00FB681A69FB799A42F2D1FB68002B59D080
:1014BC00BB68002B11D1FB685B692D4A13602C4B68
:1014CC001B68002B1AD02A4B1B685968FB685A689A
:1014DC00274B1B680A445A6010E0FB685A69BB68CA
:1014EC005A61FB685B69002B08D0FB685B69596823
:1014FC00FB685A68FB685B690A445A60FA791D49B3
:10150C0013465B001344DB000B4400221A60FA798B
:10151C00184913465B001344DB000B4404330022D0
:10152C001A60FA79134913465B001344DB000B4431
:10153C00083300221A60FA790E4913465B001344F3
:10154C00DB000B440C3300221A70FA79094913465C
:10155C005B001344DB000B44143300221A6002E0DE
:10156C0000BF00E000BF1437BD4680BC704700BF11
:10157C00CC0000201801002080B400AF30BF00BFA9
:10158C00BD4680BC7047000080B485B000AF154BE1
:10159C009B69144A43F001039361124B9B6903F05E
:1015AC000103BB60BB680F4BDB690E4A43F08053F1
:1015BC00D3610C4BDB6903F080537B607B680A4B77
:1015CC005B68FB60FB6823F0E063FB60FB6843F047
:1015DC008063FB60044AFB68536000BF1437BD4650
:1015EC0080BC7047001002400000014080B584B000
:1015FC0000AF78607B681B68B3F1804F13D10C4B44
:10160C00DB690B4A43F00103D361094BDB6903F03F
:10161C000103FB60FB68002200211C2000F0A1F9F3
:10162C001C2000F0BAF900BF1037BD4680BD00BFCA
:10163C000010024080B400AFFEE780B400AFFEE7BC
:10164C0080B400AFFEE780B400AFFEE780B400AF1B
:10165C00FEE780B400AF00BFBD4680BC704780B4CD
:10166C0000AF00BFBD4680BC704780B400AF00BF68
:10167C00BD4680BC704780B500AF00F07FF800BF5E
:10168C0080BD000080B500AF024800F0DBFF00BF5A
:10169C0080BD00BFD000002080B400AF00BFBD46AD
:1016AC0080BC7047FFF7F8FF0B480C490C4A00232D
:1016BC0002E0D458C4500433C4188C42F9D3094AFC
:1016CC00094C002301E013600432A242FBD301F069
:1016DC00F9FAFFF74BFC70470000002020000020B7
:1016EC006C2D0008200000200C020020FEE70000FA
:1016FC0080B500AF084B1B68074A43F0100313601A
:10170C00032000F023F90F2000F008F8FFF73CFF4E
:10171C000023184680BD00BF0020024080B582B077
:10172C0000AF7860124B1A68124B1B7819464FF4B5
:10173C007A73B3FBF1F3B2FBF3F3184600F03BF909
:10174C000346002B01D001230EE07B680F2B0AD837
:10175C00002279684FF0FF3000F003F9064A7B68ED
:10176C001360002300E0012318460837BD4680BDF6
:10177C00140000201C0000201800002080B400AFD2
:10178C00054B1B781A46054B1B681344034A136020
:10179C0000BFBD4680BC70471C0000200802002022
:1017AC0080B400AF024B1B681846BD4680BC704726
:1017BC000802002080B485B000AF78607B6803F02D
:1017CC000703FB600C4BDB68BB60BA684FF6FF038A
:1017DC001340BB60FB681A02BB68134343F0BF6342
:1017EC0043F40033BB60044ABB68D36000BF1437BA
:1017FC00BD4680BC704700BF00ED00E080B400AF78
:10180C00044BDB681B0A03F007031846BD4680BC7B
:10181C00704700BF00ED00E080B483B000AF03461A
:10182C00FB7197F90730002B0BDBFB7903F01F02E0
:10183C00064997F907305B09012000FA02F241F8DA
:10184C00232000BF0C37BD4680BC704700E100E090
:10185C0080B483B000AF03463960FB7197F9073051
:10186C00002B0ADB3B68DAB20C4997F907301201FE
:10187C00D2B20B4483F800230AE03B68DAB2084981
:10188C00FB7903F00F03043B1201D2B20B441A761E
:10189C0000BF0C37BD4680BC704700BF00E100E0C4
:1018AC0000ED00E080B489B000AFF860B9607A60F8
:1018BC00FB6803F00703FB61FB69C3F10703042B0F
:1018CC0028BF0423BB61FB690433062B02D9FB69D7
:1018DC00033B00E000237B614FF0FF32BB6902FA4F
:1018EC0003F3DA43BB681A407B699A404FF0FF312F
:1018FC007B6901FA03F3D9437B680B401343184609
:10190C002437BD4680BC704780B582B000AF78608C
:10191C007B68013BB3F1807F01D301230FE00A4ABE
:10192C007B68013B53600F214FF0FF30FFF790FFB6
:10193C00054B00229A60044B07221A6000231846BC
:10194C000837BD4680BD00BF10E000E080B582B016
:10195C0000AF78607868FFF72DFF00BF0837BD46F1
:10196C0080BD80B586B000AF0346B9607A60FB736A
:10197C0000237B61FFF742FF78617A68B968786968
:10198C00FFF790FF024697F90F3011461846FFF704
:10199C005FFF00BF1837BD4680BD80B582B000AF79
:1019AC000346FB7197F907301846FFF735FF00BF68
:1019BC000837BD4680BD80B582B000AF78607868CE
:1019CC00FFF7A2FF034618460837BD4680BD00004E
:1019DC0080B48BB000AF7860396000237B62002349
:1019EC003B6248E101227B6A02FA03F3FB613B682C
:1019FC001B68FA691340BB61BA69FB699A4240F0F3
:101A0C0037813B685B68A34A93425ED0A14A9342FC
:101A1C0075D8A14A934258D09F4A93426FD89F4A97
:101A2C00934252D09D4A934269D89D4A93424CD0DE
:101A3C009B4A934263D89B4A934246D0994A93421D
:101A4C005DD8122B2AD8122B59D801A252F823F0A8
:101A5C00D71A0008B11A0008C31A0008051B0008A1
:101A6C000B1B00080B1B00080B1B00080B1B0008B2
:101A7C000B1B00080B1B00080B1B00080B1B0008A2
:101A8C000B1B00080B1B00080B1B00080B1B000892
:101A9C000B1B0008B91A0008CD1A0008824A9342A1
:101AAC0013D02CE03B68DB683B6229E03B68DB68C9
:101ABC0004333B6224E03B68DB6808333B621FE085
:101ACC003B68DB680C333B621AE03B689B68002B7D
:101ADC0002D104233B6213E03B689B68012B05D1C8
:101AEC0008233B627B68FA691A6109E008233B62B0
:101AFC007B68FA695A6103E000233B6200E000BF97
:101B0C00BB69FF2B01D87B6801E07B6804337B61E8
:101B1C00BB69FF2B02D87B6A9B0002E07B6A083B07
:101B2C009B003B617B691A680F213B6901FA03F347
:101B3C00DB431A40396A3B6901FA03F31A437B69A8
:101B4C001A603B685B6803F08053002B00F09080B8
:101B5C00564B9B69554A43F001039361534B9B6968
:101B6C0003F00103BB60BB68514A7B6A9B080233DC
:101B7C0052F82330FB607B6A03F003039B000F22B7
:101B8C0002FA03F3DB43FA681340FB607B68494AB3
:101B9C0093420DD07B68484A934207D07B68474AF2
:101BAC00934201D1022304E0032302E0012300E06D
:101BBC0000237A6A02F0030292009340FA681343FE
:101BCC00FB603B497B6A9B080233FA6841F823208F
:101BDC003B685B6803F48013002B06D0384B9A6883
:101BEC003749BB6913438B6006E0354B9A68BB6978
:101BFC00DB43334913408B603B685B6803F4001391
:101C0C00002B06D02E4BDA682D49BB691343CB60F1
:101C1C0006E02B4BDA68BB69DB4329491340CB60E8
:101C2C003B685B6803F40033002B06D0244B5A68E6
:101C3C002349BB6913434B6006E0214B5A68BB69CF
:101C4C00DB431F4913404B603B685B6803F48033F4
:101C5C00002B06D01A4B1A681949BB6913430B6049
:101C6C0006E0174B1A68BB69DB43154913400B6040
:101C7C007B6A01337B623B681A687B6A22FA03F346
:101C8C00002B7FF4AFAE00BF00BF2C37BD4680BC2D
:101C9C00704700BF0000321000003110000022100D
:101CAC000000211000001210000011100010024062
:101CBC000000014000080140000C014000100140F0
:101CCC000004014080B485B000AF78600B467B8087
:101CDC007B689A687B881340002B02D00123FB732E
:101CEC0001E00023FB73FB7B18461437BD4680BC18
:101CFC00704780B483B000AF78600B467B8013468E
:101D0C007B707B78002B03D07A887B681A6103E0A8
:101D1C007B881A047B681A6100BF0C37BD4680BCF7
:101D2C00704780B485B000AF78600B467B807B68D1
:101D3C00DB68FB607A88FB6813401A04FB68D943A4
:101D4C007B880B401A437B681A6100BF1437BD4671
:101D5C0080BC704780B586B000AF78607B68002B84
:101D6C0001D101236CE27B681B6803F00103002B9B
:101D7C0000F08780924B5B6803F00C03042B0CD0B3
:101D8C008F4B5B6803F00C03082B12D18C4B5B68F8
:101D9C0003F48033B3F5803F0BD1894B1B6803F4FC
:101DAC000033002B6CD07B685B68002B68D101235F
:101DBC0046E27B685B68B3F5803F06D1804B1B68BD
:101DCC007F4A43F4803313602EE07B685B68002B02
:101DDC000CD17B4B1B687A4A23F480331360784B0D
:101DEC001B68774A23F4802313601DE07B685B68D3
:101DFC00B3F5A02F0CD1724B1B68714A43F48023AE
:101E0C0013606F4B1B686E4A43F4803313600BE016
:101E1C006B4B1B686A4A23F480331360684B1B6856
:101E2C00674A23F4802313607B685B68002B13D014
:101E3C00FFF7B6FC386108E0FFF7B2FC02463B69DD
:101E4C00D31A642B01D90323FAE15D4B1B6803F40D
:101E5C000033002BF0D014E0FFF7A2FC386108E04F
:101E6C00FFF79EFC02463B69D31A642B01D903236E
:101E7C00E6E1534B1B6803F40033002BF0D100E078
:101E8C0000BF7B681B6803F00203002B63D04C4B34
:101E9C005B6803F00C03002B0BD0494B5B6803F021
:101EAC000C03082B1CD1464B5B6803F48033002BCE
:101EBC0016D1434B1B6803F00203002B05D07B6843
:101ECC001B69012B01D00123BAE13D4B1B6823F0A8
:101EDC00F8027B685B69DB00394913430B603AE01D
:101EEC007B681B69002B20D0364B01221A60FFF750
:101EFC0057FC386108E0FFF753FC02463B69D31AE4
:101F0C00022B01D903239BE12D4B1B6803F0020329
:101F1C00002BF0D02A4B1B6823F0F8027B685B691E
:101F2C00DB00274913430B6015E0264B00221A6097
:101F3C00FFF736FC386108E0FFF732FC02463B69DC
:101F4C00D31A022B01D903237AE11D4B1B6803F032
:101F5C000203002BF0D17B681B6803F00803002BF5
:101F6C003AD07B689B69002B19D0174B01221A6061
:101F7C00FFF716FC386108E0FFF712FC02463B69DC
:101F8C00D31A022B01D903235AE10D4B5B6A03F0E0
:101F9C000203002BF0D0012000F09AFA1CE00A4B4F
:101FAC0000221A60FFF7FCFB38610FE0FFF7F8FB2B
:101FBC0002463B69D31A022B08D9032340E100BF28
:101FCC000010024000004242800442429E4B5B6A79
:101FDC0003F00203002BE9D17B681B6803F00403B8
:101FEC00002B00F0A6800023FB75974BDB6903F0F8
:101FFC008053002B0DD1944BDB69934A43F08053F3
:10200C00D361914BDB6903F08053BB60BB68012348
:10201C00FB758E4B1B6803F48073002B18D18B4B14
:10202C001B688A4A43F480731360FFF7B9FB38616D
:10203C0008E0FFF7B5FB02463B69D31A642B01D9C4
:10204C000323FDE0814B1B6803F48073002BF0D05D
:10205C007B68DB68012B06D17B4B1B6A7A4A43F009
:10206C00010313622DE07B68DB68002B0CD1764BEF
:10207C001B6A754A23F001031362734B1B6A724A85
:10208C0023F0040313621CE07B68DB68052B0CD186
:10209C006D4B1B6A6C4A43F0040313626A4B1B6A58
:1020AC00694A43F0010313620BE0674B1B6A664AF3
:1020BC0023F001031362644B1B6A634A23F004038D
:1020CC0013627B68DB68002B15D0FFF769FB386166
:1020DC000AE0FFF765FB02463B69D31A41F28832EE
:1020EC00934201D90323ABE0574B1B6A03F0020365
:1020FC00002BEED014E0FFF753FB38610AE0FFF73A
:10210C004FFB02463B69D31A41F28832934201D904
:10211C00032395E04C4B1B6A03F00203002BEED11A
:10212C00FB7D012B05D1484BDB69474A23F08053DB
:10213C00D3617B68DB69002B00F08180424B5B68CC
:10214C0003F00C03082B61D07B68DB69022B46D1B2
:10215C003F4B00221A60FFF723FB386108E0FFF7C2
:10216C001FFB02463B69D31A022B01D9032367E0FC
:10217C00354B1B6803F00073002BF0D17B681B6A96
:10218C00B3F5803F08D1304B5B6823F400327B6899
:10219C009B682D4913434B602B4B5B6823F47412E3
:1021AC007B68196A7B685B6A0B43274913434B6056
:1021BC00274B01221A60FFF7F3FA386108E0FFF7AA
:1021CC00EFFA02463B69D31A022B01D9032337E0FD
:1021DC001D4B1B6803F00073002BF0D02FE01C4B41
:1021EC0000221A60FFF7DCFA386108E0FFF7D8FA32
:1021FC0002463B69D31A022B01D9032320E0124B70
:10220C001B6803F00073002BF0D118E07B68DB69CE
:10221C00012B01D1012313E00B4B5B68FB60FB68C6
:10222C0003F480327B681B6A9A4206D1FB6803F484
:10223C0070127B685B6A9A4201D0012300E0002394
:10224C0018461837BD4680BD001002400070004093
:10225C006000424280B584B000AF786039607B6822
:10226C00002B01D10123D0E06A4B1B6803F007035C
:10227C003A689A4210D9674B1B6823F007026549EC
:10228C003B6813430B60634B1B6803F007033A680E
:10229C009A4201D00123B8E07B681B6803F002036B
:1022AC00002B20D07B681B6803F00403002B05D0A7
:1022BC00594B5B68584A43F4E06353607B681B6876
:1022CC0003F00803002B05D0534B5B68524A43F4D0
:1022DC0060535360504B5B6823F0F0027B689B6843
:1022EC004D4913434B607B681B6803F00103002BC3
:1022FC0040D07B685B68012B07D1474B1B6803F40C
:10230C000033002B15D101237FE07B685B68022B27
:10231C0007D1414B1B6803F00073002B09D101233B
:10232C0073E03D4B1B6803F00203002B01D101232A
:10233C006BE0394B5B6823F003027B685B683649C2
:10234C0013434B60FFF72CFAF8600AE0FFF728FA0A
:10235C000246FB68D31A41F28832934201D9032317
:10236C0053E02D4B5B6803F00C027B685B689B00B1
:10237C009A42EBD1274B1B6803F007033A689A4249
:10238C0010D2244B1B6823F0070222493B681343ED
:10239C000B60204B1B6803F007033A689A4201D08C
:1023AC00012332E07B681B6803F00403002B08D088
:1023BC00194B5B6823F4E0627B68DB6816491343B6
:1023CC004B607B681B6803F00803002B09D0124B91
:1023DC005B6823F460527B681B69DB000E49134376
:1023EC004B6000F021F802460B4B5B681B0903F0B5
:1023FC000F030A49CB5C22FA03F3094A1360094B19
:10240C001B681846FFF78AF9002318461037BD469B
:10241C0080BD00BF0020024000100240402D00088B
:10242C00140000201800002080B487B000AF0023F7
:10243C00FB600023BB6000237B6100237B600023D7
:10244C003B611E4B5B68FB60FB6803F00C03042BC9
:10245C0002D0082B03D027E0194B3B6127E0FB6827
:10246C009B0C03F00F03174AD35C7B60FB6803F4EF
:10247C008033002B10D0114B5B685B0C03F0010315
:10248C00114AD35CBB607B680D4A02FB03F2BB684C
:10249C00B2FBF3F37B6104E07B680C4A02FB03F3B1
:1024AC007B617B693B6102E0054B3B6100BF3B6993
:1024BC0018461C37BD4680BC704700BF0010024058
:1024CC0000127A00502D0008602D000800093D0014
:1024DC0080B485B000AF78600A4B1B680A4AA2FB37
:1024EC0003235B0A7A6802FB03F3FB6000BFFB6803
:1024FC005A1EFA60002BF9D100BF00BF1437BD463D
:10250C0080BC704714000020D34D621080B582B09F
:10251C0000AF78607B68002B01D1012341E07B6820
:10252C0093F83D30DBB2002B06D17B68002283F898
:10253C003C207868FFF75AF87B68022283F83D202C
:10254C007B681A687B6804331946104600F056FA0B
:10255C007B68012283F846207B68012283F83E20A9
:10256C007B68012283F83F207B68012283F840209E
:10257C007B68012283F841207B68012283F842208A
:10258C007B68012283F843207B68012283F8442076
:10259C007B68012283F845207B68012283F83D206B
:1025AC00002318460837BD4680BD000080B485B0B6
:1025BC0000AF78607B6893F83D30DBB2012B01D023
:1025CC00012335E07B68022283F83D207B681B6881
:1025DC00DA687B681B6842F00102DA607B681B6872
:1025EC00164A934209D07B681B68B3F1804F04D024
:1025FC007B681B68124A934211D17B681B689B68ED
:10260C0003F00703FB60FB68062B10D07B681B688C
:10261C001A687B681B6842F001021A6007E07B684D
:10262C001B681A687B681B6842F001021A60002361
:10263C0018461437BD4680BC704700BF002C0140C3
:10264C000004004080B584B000AF78607B681B68E4
:10265C00DB68FB607B681B681B69BB60BB6803F0B5
:10266C000203002B20D0FB6803F00203002B1BD0CD
:10267C007B681B686FF002021A617B6801221A7773
:10268C007B681B689B6903F00303002B03D07868FD
:10269C0000F098F905E0786800F08BF9786800F0A4
:1026AC009AF97B6800221A77BB6803F00403002BAD
:1026BC0020D0FB6803F00403002B1BD07B681B6845
:1026CC006FF004021A617B6802221A777B681B6820
:1026DC009B6903F44073002B03D0786800F072F907
:1026EC0005E0786800F065F9786800F074F97B68AB
:1026FC0000221A77BB6803F00803002B20D0FB687C
:10270C0003F00803002B1BD07B681B686FF00802DA
:10271C001A617B6804221A777B681B68DB6903F0FB
:10272C000303002B03D0786800F04CF905E07868BF
:10273C0000F03FF9786800F04EF97B6800221A77B8
:10274C00BB6803F01003002B20D0FB6803F01003D0
:10275C00002B1BD07B681B686FF010021A617B6822
:10276C0008221A777B681B68DB6903F44073002B23
:10277C0003D0786800F026F905E0786800F019F9C4
:10278C00786800F028F97B6800221A77BB6803F0A0
:10279C000103002B0CD0FB6803F00103002B07D0C6
:1027AC007B681B686FF001021A617868FEF7F4FC15
:1027BC00BB6803F08003002B0CD0FB6803F0800394
:1027CC00002B07D07B681B686FF080021A61786859
:1027DC0000F06FFABB6803F04003002B0CD0FB68D1
:1027EC0003F04003002B07D07B681B686FF040029E
:1027FC001A61786800F0F8F8BB6803F02003002B2E
:10280C000CD0FB6803F02003002B07D07B681B68FF
:10281C006FF020021A61786800F042FA00BF10379E
:10282C00BD4680BD80B584B000AF786039600023B0
:10283C00FB737B6893F83C30012B01D10223B4E08D
:10284C007B68012283F83C207B68022283F83D20C0
:10285C007B681B689B68BB60BB6823F07703BB601D
:10286C00BB6823F47F43BB607B681B68BA689A60C3
:10287C003B681B68B3F5005F3ED0B3F5005F00F218
:10288C008780B3F5805F00F08680B3F5805F7FD8DA
:10289C00702B1AD0702B7BD8602B50D0602B77D834
:1028AC00502B3CD0502B73D8402B58D0402B6FD88A
:1028BC00302B64D0302B6BD8202B60D0202B67D8DA
:1028CC00002B5CD0102B5AD062E07B6818683B68F8
:1028DC0099683B685A683B68DB6800F06AF97B686A
:1028EC001B689B68BB60BB6843F07703BB607B686D
:1028FC001B68BA689A604FE07B6818683B689968F7
:10290C003B685A683B68DB6800F053F97B681B68CE
:10291C009A687B681B6842F480429A603CE07B6852
:10292C0018683B6859683B68DB681A4600F0CAF8BF
:10293C007B681B685021184600F021F92CE07B685D
:10294C0018683B6859683B68DB681A4600F0E8F881
:10295C007B681B686021184600F011F91CE07B684D
:10296C0018683B6859683B68DB681A4600F0AAF89F
:10297C007B681B684021184600F001F90CE07B686D
:10298C001A683B681B681946104600F0F8F803E01B
:10299C000123FB7300E000BF7B68012283F83D201C
:1029AC007B68002283F83C20FB7B18461037BD4621
:1029BC0080BD80B483B000AF786000BF0C37BD46DB
:1029CC0080BC704780B483B000AF786000BF0C3718
:1029DC00BD4680BC704780B483B000AF786000BF48
:1029EC000C37BD4680BC704780B483B000AF7860B4
:1029FC0000BF0C37BD4680BC7047000080B485B06A
:102A0C0000AF786039607B681B68FB607B682B4A81
:102A1C00934207D07B68B3F1804F03D07B68284A80
:102A2C00934208D1FB6823F07003FB603B685B6842
:102A3C00FA681343FB607B68204A934207D07B689B
:102A4C00B3F1804F03D07B681D4A934208D1FB68D9
:102A5C0023F44073FB603B68DB68FA681343FB604C
:102A6C00FB6823F080023B685B691343FB607B6867
:102A7C00FA681A603B689A687B68DA623B681A6885
:102A8C007B689A627B680D4A934203D13B681A6952
:102A9C007B681A637B6801225A617B681B6903F0AF
:102AAC000103002B05D07B681B6923F001027B68B6
:102ABC001A6100BF1437BD4680BC7047002C014022
:102ACC000004004080B487B000AFF860B9607A6051
:102ADC00FB681B6A7B61FB681B6A23F00102FB68C5
:102AEC001A62FB689B693B613B6923F0F0033B6115
:102AFC007B681B013A6913433B617B6923F00A0332
:102B0C007B617A69BB6813437B61FB683A699A61A4
:102B1C00FB687A691A6200BF1C37BD4680BC7047DF
:102B2C0080B487B000AFF860B9607A60FB681B6A4C
:102B3C007B61FB681B6A23F01002FB681A62FB685E
:102B4C009B693B613B6923F470433B617B681B03CE
:102B5C003A6913433B617B6923F0A0037B61BB683B
:102B6C001B017A6913437B61FB683A699A61FB68C4
:102B7C007A691A6200BF1C37BD4680BC704780B4AE
:102B8C0085B000AF786039607B689B68FB60FB6840
:102B9C0023F07003FB603A68FB68134343F00703B0
:102BAC00FB607B68FA689A6000BF1437BD4680BC36
:102BBC00704780B487B000AFF860B9607A603B6052
:102BCC00FB689B687B617B6923F47F437B613B687B
:102BDC001A027B681A43BB6813437A6913437B61FF
:102BEC00FB687A699A6000BF1C37BD4680BC704791
:102BFC0080B485B000AF786039607B6893F83C3066
:102C0C00012B01D1022341E07B68012283F83C2097
:102C1C007B68022283F83D207B681B685B68FB6045
:102C2C007B681B689B68BB60FB6823F07003FB60D0
:102C3C003B681B68FA681343FB607B681B68FA6887
:102C4C005A607B681B68144A934209D07B681B68E6
:102C5C00B3F1804F04D07B681B68104A93420CD1AF
:102C6C00BB6823F08003BB603B685B68BA681343A6
:102C7C00BB607B681B68BA689A607B68012283F82A
:102C8C003D207B68002283F83C2000231846143733
:102C9C00BD4680BC704700BF002C014000040040C2
:102CAC0080B483B000AF786000BF0C37BD4680BCE9
:102CBC00704780B483B000AF786000BF0C37BD465E
:102CCC0080BC704770B500260C4D0D4C641BA410D5
:102CDC00A64209D100F022F800260A4D0A4C641BCA
:102CEC00A410A64205D170BD55F8043B9847013697
:102CFC00EEE755F8043B98470136F2E7642D0008DF
:102D0C00642D0008642D0008682D00080346024459
:102D1C00934200D1704703F8011BF9E7F8B500BFE7
:102D2C00F8BC08BC9E467047F8B500BFF8BC08BCA0
:042D3C009E467047F8
:102D4000000000000000000001020304060708095B
:102D500002030405060708090A0B0C0D0E0F1010DC
:042D6000010200006C
:042D64003101000831
:042D68000D01000851
:102D6C000A00000001000000050000000200000045
:102D7C000300000000127A001000000001000000A7
:04000005080016B128
:00000001FF
