:020000040800F2
:100000000028002061130008F1120008F712000810
:10001000FD12000803130008091300080000000087
:100020000000000000000000000000000F130008A6
:100030001B130008000000002713000833130008FA
:10004000A9130008A9130008A9130008A9130008A0
:10005000A9130008A9130008A9130008A913000890
:10006000A9130008A9130008A9130008A913000880
:10007000A9130008A9130008A9130008A913000870
:10008000A9130008A9130008A9130008A913000860
:10009000A9130008A9130008A9130008A913000850
:1000A000A9130008A9130008A9130008A913000840
:1000B00041130008A913000800000000A91300085C
:1000C000A91300080000000000000000A9130008A8
:1000D00000000000A9130008A91300080000000098
:1000E000A9130008A9130008A913000800000000C4
:1000F0000000000000000000000000000000000000
:0C01000000000000000000005FF808F1A3
:10010C0010B5054C237833B9044B13B10448AFF345
:10011C0000800123237010BD2C0000200000000083
:10012C00D829000808B5034B1BB103490348AFF3AA
:10013C00008008BD0000000030000020D829000815
:10014C0080B582B000AF78607B68002B22D1002292
:10015C000121BD4801F025FC00220221BA4801F022
:10016C0020FC00220421B84801F01BFC00220821CD
:10017C00B54801F016FC00221021B34801F011FC27
:10018C0000222021B04801F00CFC01224021AE4895
:10019C0001F007FC7B68012B22D101220121AA4826
:1001AC0001F0FFFB00220221A74801F0FAFB00221C
:1001BC000421A54801F0F5FB01220821A24801F019
:1001CC00F0FB01221021A04801F0EBFB01222021C1
:1001DC009D4801F0E6FB012240219B4801F0E1FB28
:1001EC007B68022B22D100220121974801F0D9FB18
:1001FC0000220221944801F0D4FB012204219248F0
:10020C0001F0CFFB002208218F4801F0CAFB00222D
:10021C0010218D4801F0C5FB012220218A4801F0F4
:10022C00C0FB00224021884801F0BBFB7B68032BFC
:10023C0022D100220121844801F0B3FB00220221CB
:10024C00814801F0AEFB002204217F4801F0A9FB9C
:10025C00002208217C4801F0A4FB012210217A48DD
:10026C0001F09FFB01222021774801F09AFB00222C
:10027C004021754801F095FB7B68042B22D10122AB
:10028C000121714801F08DFB002202216E4801F022
:10029C0088FB002204216C4801F083FB0122082119
:1002AC00694801F07EFB01221021674801F079FBBF
:1002BC0000222021644801F074FB00224021624896
:1002CC0001F06FFB7B68052B22D1002201215E48D7
:1002DC0001F067FB012202215B4801F062FB002266
:1002EC000421594801F05DFB00220821564801F019
:1002FC0058FB01221021544801F053FB002220210D
:10030C00514801F04EFB002240214F4801F049FBBF
:10031C007B68062B22D1002201214B4801F041FBC6
:10032C0001220221484801F03CFB002204214648EE
:10033C0001F037FB00220821434801F032FB002278
:10034C001021414801F02DFB002220213E4801F0F4
:10035C0028FB002240213C4801F023FB7B68072B43
:10036C0022D100220121384801F01BFB002202217E
:10037C00354801F016FB00220421334801F011FB33
:10038C0001220821304801F00CFB012210212E48DB
:10039C0001F007FB012220212B4801F002FB012276
:1003AC004021294801F0FDFA7B68082B22D100225C
:1003BC000121254801F0F5FA00220221224801F022
:1003CC00F0FA00220421204801F0EBFA0022082167
:1003DC001D4801F0E6FA002210211B4801F0E1FA59
:1003EC0000222021184801F0DCFA00224021164896
:1003FC0001F0D7FA7B68092B22D100220121124887
:10040C0001F0CFFA002202210F4801F0CAFA0022B3
:10041C0004210D4801F0C5FA002208210A4801F018
:10042C00C0FA01221021084801F0BBFA0022202159
:10043C00054801F0B6FA00224021034801F0B1FA58
:10044C0000BF0837BD4680BD000C014080B582B0AE
:10045C0000AF786001224FF48051214801F0A1FADD
:10046C0001224FF400511E4801F09BFA01224FF477
:10047C0080411B4801F095FA01224FF400411848C5
:10048C0001F08FFA7B68032B26D801A252F823F0D7
:10049C00AD040008BB040008C9040008D704000818
:1004AC0000224FF480510E4801F07BFA14E0002238
:1004BC004FF400510A4801F074FA0DE000224FF499
:1004CC008041074801F06DFA06E000224FF400412C
:1004DC00034801F066FA00BF00BF0837BD4680BD77
:1004EC000008014080B582B000AF01224FF480516A
:1004FC00194801F056FA01224FF40051164801F048
:10050C0050FA01224FF48041134801F04AFA0122BB
:10051C004FF40041104801F044FA104B1B68104A8C
:10052C0052F823307B607868FFF70AFE0B4B1B6890
:10053C001846FFF78BFF094B1B680133074A136002
:10054C00064B1B68032B02DD044B00221A6000BF14
:10055C000837BD4680BD00BF000801405800002090
:10056C004800002080B483B000AF786039607B68AD
:10057C00184A82FB03129210DB17D31A164A136027
:10058C007968144B83FB01239A10CB17D21A1346AC
:10059C009B0013445B00CA1A0F4B5A603B680D4A10
:1005AC0082FB03129210DB17D31A0B4A9360396843
:1005BC00084B83FB01239A10CB17D21A13469B00CE
:1005CC0013445B00CA1A044BDA6000BF0C37BD46FB
:1005DC0080BC7047676666664800002080B582B0B4
:1005EC0000AF002000F0FAFD7860032000F0F6FD6B
:1005FC00386039687868FFF7B5FF00BF0837BD462B
:10060C0080BD000080B483B000AF00237B6025E088
:10061C00174A7B68012142F82310164A7B68012196
:10062C0042F82310144A7B68012142F82310134A24
:10063C007B68012142F82310114A7B68C82142F8DB
:10064C002310104A7B68002142F823100E4A7B6865
:10065C00002142F823107B6801337B607B68022BFE
:10066C00D6DD00BF00BF0C37BD4680BC704700BF55
:10067C005C00002068000020740000208000002036
:10068C008C00002098000020A400002080B582B0CF
:10069C0000AF00237B6099E0514A7B6852F823201D
:1006AC0050497B6841F823204F4A7B6852F823203D
:1006BC004B497B6841F823207B68022B20D07B6858
:1006CC00022B29DC7B68002B03D07B68012B0BD021
:1006DC0022E08021454801F04DF903461946424A73
:1006EC007B6842F8231018E04FF480713F4801F00A
:1006FC0041F9034619463C4A7B6842F823100CE04A
:10070C004FF40071394801F035F903461946364A61
:10071C007B6842F8231000E000BF324A7B6852F835
:10072C0023202F497B6851F823309A424BD12C4A15
:10073C007B6852F823202C497B6851F823309A426D
:10074C0041D12B4A7B6852F8232027497B6851F80A
:10075C0023309A4218D0244A7B6852F8232024492B
:10076C007B6841F82320204A7B6852F82330002B09
:10077C0029D1204A7B68012142F823101E4A7B684C
:10078C00C82142F823101EE0194A7B6852F8233026
:10079C00002B18D1184A7B6852F823305A1E164980
:1007AC007B6841F82320144A7B6852F82330002BD5
:1007BC0009DC124A7B68012142F823100E4A7B683F
:1007CC00C82142F823107B6801337B607B68022BC5
:1007DC007FF762AF00BF00BF0837BD4680BD00BFCA
:1007EC00680000205C00002074000020000C014018
:1007FC0080000020980000208C000020A400002025
:10080C0080B483B000AF78607B68022B01DD0023DD
:10081C000DE0094A7B6852F82330012B06D1064AB9
:10082C007B68002142F82310012300E000231846C6
:10083C000C37BD4680BC70479800002080B483B054
:10084C0000AF78607B68022B01DD00230DE0094AC4
:10085C007B6852F82330012B06D1064A7B680021B5
:10086C0042F82310012300E0002318460C37BD4644
:10087C0080BC7047A400002080B500AF464B1B68BD
:10088C00013B042B7AD801A252F823F0AD080008E2
:10089C00E908000811090008510900087909000845
:1008AC0000F0FEFA00F088FA00F0B2FA3B4B1B683D
:1008BC004FF47A7202FB03F31946002000F040FC5F
:1008CC00374B1B684FF47A7202FB03F31946032073
:1008DC0000F036FC304B02221A605AE0314B1B6898
:1008EC00012B4FD100F07EFA2F4B1B684FF47A721C
:1008FC0002FB03F31946002000F022FC264B0322D6
:10090C001A603FE0274B1B68012B3DD100F03EFAEB
:10091C0000F096FA224B1B684FF47A7202FB03F339
:10092C001946002000F00CFC1C4B1B684FF47A722B
:10093C0002FB03F31946032000F002FC164B0422C1
:10094C001A6021E0174BDB68012B1FD100F090FAE5
:10095C00154B1B684FF47A7202FB03F31946032004
:10096C0000F0EEFB0C4B05221A600FE00D4BDB6820
:10097C00012B0DD1084B01221A6009E0064B012214
:10098C001A6006E000BF04E000BF02E000BF00E018
:10099C0000BF00BF80BD00BF100000201C00002065
:1009AC0014000020100100201800002080B500AFBA
:1009BC00994B1B680A3B052B00F2C18101A252F82E
:1009CC0023F000BFE90900084B0D0008350A0008A8
:1009DC004D0C0008290B00082D0D0008FFF74CFFEB
:1009EC00FFF7FCFD0020FFF70BFF0346012B40F047
:1009FC00AD81894B0C221A60884B1B68884A1360A6
:100A0C00884B1B68884A1360884B1B68884A1360A4
:100A1C0042F21071022000F093FBFA21012000F049
:100A2C008FFB00F03DFA91E1824B5B68012B07D103
:100A3C004021814800F0CDFFFA21012000F080FB1D
:100A4C00774B1B6819460220FFF78CFD0020FFF73F
:100A5C00D7FE0346012B11D16F4B0E221A60714B3E
:100A6C001B68714A136042F21071022000F068FB9F
:100A7C00FA21012000F064FB00F012FA0120FFF7CC
:100A8C00BFFE0346012B05D00120FFF7D7FE03461E
:100A9C00012B10D1624B1B680133614A1360604B10
:100AAC001B68632B02DD5E4B01221A6042F210714F
:100ABC00022000F045FB0220FFF7A2FE0346012BAB
:100ACC0020D1594B1A685A4B1B681A44544B1B685B
:100ADC009A420FD1524B1B68504A1360524B1B6801
:100AEC00504A1360524B1B68504A13604A4B0A22FF
:100AFC001A6007E0484B0F221A6040F6B831052007
:100B0C0000F01EFB4B4B9B68012B40F02181424BAC
:100B1C000A221A60494B01221A6019E1454B5B68A5
:100B2C00012B08D14FF48071434800F052FFFA2199
:100B3C00012000F005FB3C4B1B6819460320FFF716
:100B4C0011FD0020FFF75CFE0346012B11D1324B47
:100B5C000D221A60354B1B68354A136042F2107136
:100B6C00022000F0EDFAFA21012000F0E9FA00F081
:100B7C0097F90120FFF744FE0346012B05D0012015
:100B8C00FFF75CFE0346012B10D1274B1B6801338A
:100B9C00254A1360244B1B68632B02DD224B012278
:100BAC001A6042F21071022000F0CAFA0220FFF71C
:100BBC0027FE0346012B23D11B4B1A681C4B1B68C9
:100BCC001A44174B1B689A4212D1154B1B68134AD7
:100BDC001360154B1B68134A1360154B1B68134AA3
:100BEC0013600D4B0A221A60144B01221A6007E0A5
:100BFC00094B0F221A6040F6B831052000F0A0FA1C
:100C0C000C4B9B68012B40F0A580034B0A221A6009
:100C1C000A4B01221A609DE00C00002014000020F9
:100C2C00000000201C000020040000201800002000
:100C3C0008000020100100200008014010000020D6
:100C4C00484B5B68012B07D18021474800F0C1FE5F
:100C5C00FA21012000F074FA444B1B681946042059
:100C6C00FFF780FC0020FFF7CBFD0346012B05D1DD
:100C7C003F4B0A221A603F4B01221A600120FFF7FA
:100C8C00BFFD0346012B05D00120FFF7D7FD03461E
:100C9C00012B10D1354B1B680133344A1360334B95
:100CAC001B68632B02DD314B01221A6042F210717A
:100CBC00022000F045FA0220FFF7A2FD0346012BAB
:100CCC0023D12D4B1A68294B1B681A442B4B1B68DC
:100CDC009A4212D1294B1B68294A1360264B1B6878
:100CEC00284A1360214B1B68274A1360204B0A22A9
:100CFC001A60204B01221A6007E01D4B0F221A606C
:100D0C0040F6B831052000F01BFA164B9B68012BFE
:100D1C0022D1174B0A221A60164B01221A601BE0D3
:100D2C0063216320FFF71EFC0E4B5B69012B15D171
:100D3C000F4B0A221A600F4B01221A600EE00C4B6B
:100D4C000A221A600B4B01221A6008E000BF06E071
:100D5C0000BF04E000BF02E000BF00E000BF00BF26
:100D6C0080BD00BF100100200008014008000020D9
:100D7C000C000020100000200400002000000020C7
:100D8C00140000201C0000201800002080B500AFCB
:100D9C0000224021074800F004FE01228021054872
:100DAC0000F0FFFD01224FF48071024800F0F9FDC4
:100DBC0000BF80BD0008014080B500AF012240217A
:100DCC00074800F0EEFD01228021054800F0E9FD06
:100DDC0000224FF48071024800F0E3FD00BF80BD9B
:100DEC000008014080B500AF01224021074800F007
:100DFC00D8FD00228021054800F0D3FD01224FF4DC
:100E0C008071024800F0CDFD00BF80BD000801409C
:100E1C0080B500AF00224FF40071084800F0C1FD0E
:100E2C0001224FF48061054800F0BBFD01224FF414
:100E3C000061024800F0B5FD00BF80BD0008014014
:100E4C0080B500AF01224FF40071084800F0A9FDF5
:100E5C0001224FF48061054800F0A3FD00224FF4FD
:100E6C000061024800F09DFD00BF80BD00080140FC
:100E7C0080B500AF01224FF40071084800F091FDDD
:100E8C0000224FF48061054800F08BFD01224FF4E5
:100E9C000061024800F085FD00BF80BD00080140E4
:100EAC0080B500AF01224021104800F07AFD0122EC
:100EBC0080210E4800F075FD01224FF480710B4823
:100ECC0000F06FFD01224FF40071084800F069FD3D
:100EDC0001224FF48061054800F063FD01224FF4BC
:100EEC000061024800F05DFD00BF80BD00080140BC
:100EFC0080B500AF00F054FA00F024F800F0AAF826
:100F0C0000F05CF80C4801F0A9F9FFF77BFB4FF4FB
:100F1C00FA71042000F014F9FFF748FD074B1B6928
:100F2C00012BF9D12021064800F053FD4FF4FA7142
:100F3C00042000F005F9EFE7C800002010010020A4
:100F4C000008014080B590B000AF07F118032822CB
:100F5C000021184601F032FD3B1D00221A605A6038
:100F6C009A60DA601A610223BB610123BB62102311
:100F7C00FB6200237B6307F11803184600F042FD67
:100F8C000346002B01D000F0D5F80F237B60002323
:100F9C00BB600023FB6000233B6100237B613B1D96
:100FAC000021184600F0AEFF0346002B01D000F0E4
:100FBC00C1F800BF4037BD4680BD000080B586B08B
:100FCC0000AF07F1080300221A605A609A60DA60D9
:100FDC003B4600221A605A601D4B4FF080421A604B
:100FEC001B4B41F63F725A60194B00229A60184B0A
:100FFC000922DA60164B00221A61154B00229A6105
:10100C00134801F0DBF80346002B01D000F092F8F6
:10101C004FF48053BB6007F1080319460C4801F0EC
:10102C0059FA0346002B01D000F084F800233B60F2
:10103C0000237B603B461946054801F031FC034612
:10104C00002B01D000F076F800BF1837BD4680BDEC
:10105C00C800002080B586B000AF07F1080300225D
:10106C001A605A609A60DA60284B9B69274A43F0F1
:10107C0004039361254B9B6903F004037B607B683D
:10108C00224B9B69214A43F0080393611F4B9B69D8
:10109C0003F008033B603B6800224FF6E0711C48EC
:1010AC0000F07FFC00227F211A4800F07AFC4FF6FA
:1010BC00E073BB600123FB6000233B6102237B6177
:1010CC0007F108031946124800F0DAFA7F23BB60D7
:1010DC000123FB6000233B6102237B6107F10803C2
:1010EC0019460C4800F0CCFA4FF46073BB60002337
:1010FC00FB6001233B6107F108031946054800F02A
:10110C00BFFA00BF1837BD4680BD00BF00100240BB
:10111C0000080140000C014080B582B000AF78603F
:10112C0000F032F8FFF7B2FAFFF7DCF900BF08372E
:10113C00BD4680BD80B400AF72B600BFFEE70000B4
:10114C0080B483B000AF786039607B68052B10DC0D
:10115C003B680A4A82FB03129210DB17D21A084929
:10116C007B6841F82320074A7B68002142F8231052
:10117C0000E000BF0C37BD4680BC704767666666F2
:10118C00B00000201001002080B483B000AF002319
:10119C007B6016E00F4A7B6852F823305A1E0D49CB
:1011AC007B6841F823200B4A7B6852F82330002BD4
:1011BC0004DC094A7B68012142F823107B68013367
:1011CC007B607B68052BE5DD00BF00BF0C37BD469F
:1011DC0080BC7047B00000201001002080B485B0A6
:1011EC0000AF78607B68052B01DD00231BE0104A03
:1011FC007B6852F82330002B01DC002313E00C4AEF
:10120C007B6852F8232013469B0013445B00FB6061
:10121C00FB6803F2E733074A82FB03129211DB17D8
:10122C00D31ABB60BB6818461437BD4680BC7047E8
:10123C00B0000020D34D621080B485B000AF154BC8
:10124C009B69144A43F001039361124B9B6903F0B1
:10125C000103BB60BB680F4BDB690E4A43F0805344
:10126C00D3610C4BDB6903F080537B607B680A4BCA
:10127C005B68FB60FB6823F0E063FB60FB6843F09A
:10128C008063FB60044AFB68536000BF1437BD46A3
:10129C0080BC7047001002400000014080B584B053
:1012AC0000AF78607B681B68B3F1804F13D10C4B97
:1012BC00DB690B4A43F00103D361094BDB6903F093
:1012CC000103FB60FB68002200211C2000F0A1F947
:1012DC001C2000F0BAF900BF1037BD4680BD00BF1E
:1012EC000010024080B400AFFEE780B400AFFEE710
:1012FC0080B400AFFEE780B400AFFEE780B400AF6F
:10130C00FEE780B400AF00BFBD4680BC704780B420
:10131C0000AF00BFBD4680BC704780B400AF00BFBB
:10132C00BD4680BC704780B500AF00F07FF800BFB1
:10133C0080BD000080B500AF024800F0DBFF00BFAD
:10134C0080BD00BFC800002080B400AF00BFBD4608
:10135C0080BC7047FFF7F8FF0B480C490C4A002380
:10136C0002E0D458C4500433C4188C42F9D3094A4F
:10137C00094C002301E013600432A242FBD301F0BC
:10138C00F9FAFFF7B5FD7047000000202C00002093
:10139C001C2A00082C0000202C010020FEE7000075
:1013AC0080B500AF084B1B68074A43F0100313606D
:1013BC00032000F023F90F2000F008F8FFF73CFFA2
:1013CC000023184680BD00BF0020024080B582B0CB
:1013DC0000AF7860124B1A68124B1B7819464FF409
:1013EC007A73B3FBF1F3B2FBF3F3184600F03BF95D
:1013FC000346002B01D001230EE07B680F2B0AD88B
:10140C00002279684FF0FF3000F003F9064A7B6840
:10141C001360002300E0012318460837BD4680BD49
:10142C0020000020280000202400002080B400AF01
:10143C00054B1B781A46054B1B681344034A136073
:10144C0000BFBD4680BC704728000020280100204A
:10145C0080B400AF024B1B681846BD4680BC704779
:10146C002801002080B485B000AF78607B6803F061
:10147C000703FB600C4BDB68BB60BA684FF6FF03DD
:10148C001340BB60FB681A02BB68134343F0BF6395
:10149C0043F40033BB60044ABB68D36000BF14370D
:1014AC00BD4680BC704700BF00ED00E080B400AFCB
:1014BC00044BDB681B0A03F007031846BD4680BCCF
:1014CC00704700BF00ED00E080B483B000AF03466E
:1014DC00FB7197F90730002B0BDBFB7903F01F0234
:1014EC00064997F907305B09012000FA02F241F82E
:1014FC00232000BF0C37BD4680BC704700E100E0E4
:10150C0080B483B000AF03463960FB7197F90730A4
:10151C00002B0ADB3B68DAB20C4997F90730120151
:10152C00D2B20B4483F800230AE03B68DAB20849D4
:10153C00FB7903F00F03043B1201D2B20B441A7671
:10154C0000BF0C37BD4680BC704700BF00E100E017
:10155C0000ED00E080B489B000AFF860B9607A604B
:10156C00FB6803F00703FB61FB69C3F10703042B62
:10157C0028BF0423BB61FB690433062B02D9FB692A
:10158C00033B00E000237B614FF0FF32BB6902FAA2
:10159C0003F3DA43BB681A407B699A404FF0FF3182
:1015AC007B6901FA03F3D9437B680B40134318465C
:1015BC002437BD4680BC704780B582B000AF7860E0
:1015CC007B68013BB3F1807F01D301230FE00A4A12
:1015DC007B68013B53600F214FF0FF30FFF790FF0A
:1015EC00054B00229A60044B07221A600023184610
:1015FC000837BD4680BD00BF10E000E080B582B06A
:10160C0000AF78607868FFF72DFF00BF0837BD4644
:10161C0080BD80B586B000AF0346B9607A60FB73BD
:10162C0000237B61FFF742FF78617A68B9687869BB
:10163C00FFF790FF024697F90F3011461846FFF757
:10164C005FFF00BF1837BD4680BD80B582B000AFCC
:10165C000346FB7197F907301846FFF735FF00BFBB
:10166C000837BD4680BD80B582B000AF7860786821
:10167C00FFF7A2FF034618460837BD4680BD0000A1
:10168C0080B48BB000AF7860396000237B6200239C
:10169C003B6248E101227B6A02FA03F3FB613B687F
:1016AC001B68FA691340BB61BA69FB699A4240F046
:1016BC0037813B685B68A34A93425ED0A14A934250
:1016CC0075D8A14A934258D09F4A93426FD89F4AEB
:1016DC00934252D09D4A934269D89D4A93424CD032
:1016EC009B4A934263D89B4A934246D0994A934271
:1016FC005DD8122B2AD8122B59D801A252F823F0FC
:10170C00871700086117000873170008B517000841
:10171C00BB170008BB170008BB170008BB17000855
:10172C00BB170008BB170008BB170008BB17000845
:10173C00BB170008BB170008BB170008BB17000835
:10174C00BB170008691700087D170008824A9342EE
:10175C0013D02CE03B68DB683B6229E03B68DB681C
:10176C0004333B6224E03B68DB6808333B621FE0D8
:10177C003B68DB680C333B621AE03B689B68002BD0
:10178C0002D104233B6213E03B689B68012B05D11B
:10179C0008233B627B68FA691A6109E008233B6203
:1017AC007B68FA695A6103E000233B6200E000BFEA
:1017BC00BB69FF2B01D87B6801E07B6804337B613C
:1017CC00BB69FF2B02D87B6A9B0002E07B6A083B5B
:1017DC009B003B617B691A680F213B6901FA03F39B
:1017EC00DB431A40396A3B6901FA03F31A437B69FC
:1017FC001A603B685B6803F08053002B00F090800C
:10180C00564B9B69554A43F001039361534B9B69BB
:10181C0003F00103BB60BB68514A7B6A9B0802332F
:10182C0052F82330FB607B6A03F003039B000F220A
:10183C0002FA03F3DB43FA681340FB607B68494A06
:10184C0093420DD07B68484A934207D07B68474A45
:10185C00934201D1022304E0032302E0012300E0C0
:10186C0000237A6A02F0030292009340FA68134351
:10187C00FB603B497B6A9B080233FA6841F82320E2
:10188C003B685B6803F48013002B06D0384B9A68D6
:10189C003749BB6913438B6006E0354B9A68BB69CB
:1018AC00DB43334913408B603B685B6803F40013E4
:1018BC00002B06D02E4BDA682D49BB691343CB6045
:1018CC0006E02B4BDA68BB69DB4329491340CB603C
:1018DC003B685B6803F40033002B06D0244B5A683A
:1018EC002349BB6913434B6006E0214B5A68BB6923
:1018FC00DB431F4913404B603B685B6803F4803348
:10190C00002B06D01A4B1A681949BB6913430B609C
:10191C0006E0174B1A68BB69DB43154913400B6093
:10192C007B6A01337B623B681A687B6A22FA03F399
:10193C00002B7FF4AFAE00BF00BF2C37BD4680BC80
:10194C00704700BF00003210000031100000221060
:10195C0000002110000012100000111000100240B5
:10196C000000014000080140000C01400010014043
:10197C000004014080B485B000AF78600B467B80DA
:10198C007B689A687B881340002B02D00123FB7381
:10199C0001E00023FB73FB7B18461437BD4680BC6B
:1019AC00704780B483B000AF78600B467B801346E1
:1019BC007B707B78002B03D07A887B681A6103E0FC
:1019CC007B881A047B681A6100BF0C37BD4680BC4B
:1019DC00704780B485B000AF78600B467B807B6825
:1019EC00DB68FB607A88FB6813401A04FB68D943F8
:1019FC007B880B401A437B681A6100BF1437BD46C5
:101A0C0080BC704780B586B000AF78607B68002BD7
:101A1C0001D101236CE27B681B6803F00103002BEE
:101A2C0000F08780924B5B6803F00C03042B0CD006
:101A3C008F4B5B6803F00C03082B12D18C4B5B684B
:101A4C0003F48033B3F5803F0BD1894B1B6803F44F
:101A5C000033002B6CD07B685B68002B68D10123B2
:101A6C0046E27B685B68B3F5803F06D1804B1B6810
:101A7C007F4A43F4803313602EE07B685B68002B55
:101A8C000CD17B4B1B687A4A23F480331360784B60
:101A9C001B68774A23F4802313601DE07B685B6826
:101AAC00B3F5A02F0CD1724B1B68714A43F4802301
:101ABC0013606F4B1B686E4A43F4803313600BE06A
:101ACC006B4B1B686A4A23F480331360684B1B68AA
:101ADC00674A23F4802313607B685B68002B13D068
:101AEC00FFF7B6FC386108E0FFF7B2FC02463B6931
:101AFC00D31A642B01D90323FAE15D4B1B6803F461
:101B0C000033002BF0D014E0FFF7A2FC386108E0A2
:101B1C00FFF79EFC02463B69D31A642B01D90323C1
:101B2C00E6E1534B1B6803F40033002BF0D100E0CB
:101B3C0000BF7B681B6803F00203002B63D04C4B87
:101B4C005B6803F00C03002B0BD0494B5B6803F074
:101B5C000C03082B1CD1464B5B6803F48033002B21
:101B6C0016D1434B1B6803F00203002B05D07B6896
:101B7C001B69012B01D00123BAE13D4B1B6823F0FB
:101B8C00F8027B685B69DB00394913430B603AE070
:101B9C007B681B69002B20D0364B01221A60FFF7A3
:101BAC0057FC386108E0FFF753FC02463B69D31A37
:101BBC00022B01D903239BE12D4B1B6803F002037D
:101BCC00002BF0D02A4B1B6823F0F8027B685B6972
:101BDC00DB00274913430B6015E0264B00221A60EB
:101BEC00FFF736FC386108E0FFF732FC02463B6930
:101BFC00D31A022B01D903237AE11D4B1B6803F086
:101C0C000203002BF0D17B681B6803F00803002B48
:101C1C003AD07B689B69002B19D0174B01221A60B4
:101C2C00FFF716FC386108E0FFF712FC02463B692F
:101C3C00D31A022B01D903235AE10D4B5B6A03F033
:101C4C000203002BF0D0012000F09AFA1CE00A4BA2
:101C5C0000221A60FFF7FCFB38610FE0FFF7F8FB7E
:101C6C0002463B69D31A022B08D9032340E100BF7B
:101C7C000010024000004242800442429E4B5B6ACC
:101C8C0003F00203002BE9D17B681B6803F004030B
:101C9C00002B00F0A6800023FB75974BDB6903F04B
:101CAC008053002B0DD1944BDB69934A43F0805346
:101CBC00D361914BDB6903F08053BB60BB6801239C
:101CCC00FB758E4B1B6803F48073002B18D18B4B68
:101CDC001B688A4A43F480731360FFF7B9FB3861C1
:101CEC0008E0FFF7B5FB02463B69D31A642B01D918
:101CFC000323FDE0814B1B6803F48073002BF0D0B1
:101D0C007B68DB68012B06D17B4B1B6A7A4A43F05C
:101D1C00010313622DE07B68DB68002B0CD1764B42
:101D2C001B6A754A23F001031362734B1B6A724AD8
:101D3C0023F0040313621CE07B68DB68052B0CD1D9
:101D4C006D4B1B6A6C4A43F0040313626A4B1B6AAB
:101D5C00694A43F0010313620BE0674B1B6A664A46
:101D6C0023F001031362644B1B6A634A23F00403E0
:101D7C0013627B68DB68002B15D0FFF769FB3861B9
:101D8C000AE0FFF765FB02463B69D31A41F2883241
:101D9C00934201D90323ABE0574B1B6A03F00203B8
:101DAC00002BEED014E0FFF753FB38610AE0FFF78D
:101DBC004FFB02463B69D31A41F28832934201D958
:101DCC00032395E04C4B1B6A03F00203002BEED16E
:101DDC00FB7D012B05D1484BDB69474A23F080532F
:101DEC00D3617B68DB69002B00F08180424B5B6820
:101DFC0003F00C03082B61D07B68DB69022B46D106
:101E0C003F4B00221A60FFF723FB386108E0FFF715
:101E1C001FFB02463B69D31A022B01D9032367E04F
:101E2C00354B1B6803F00073002BF0D17B681B6AE9
:101E3C00B3F5803F08D1304B5B6823F400327B68EC
:101E4C009B682D4913434B602B4B5B6823F4741236
:101E5C007B68196A7B685B6A0B43274913434B60A9
:101E6C00274B01221A60FFF7F3FA386108E0FFF7FD
:101E7C00EFFA02463B69D31A022B01D9032337E050
:101E8C001D4B1B6803F00073002BF0D02FE01C4B94
:101E9C0000221A60FFF7DCFA386108E0FFF7D8FA85
:101EAC0002463B69D31A022B01D9032320E0124BC3
:101EBC001B6803F00073002BF0D118E07B68DB6922
:101ECC00012B01D1012313E00B4B5B68FB60FB681A
:101EDC0003F480327B681B6A9A4206D1FB6803F4D8
:101EEC0070127B685B6A9A4201D0012300E00023E8
:101EFC0018461837BD4680BD0010024000700040E7
:101F0C006000424280B584B000AF786039607B6875
:101F1C00002B01D10123D0E06A4B1B6803F00703AF
:101F2C003A689A4210D9674B1B6823F0070265493F
:101F3C003B6813430B60634B1B6803F007033A6861
:101F4C009A4201D00123B8E07B681B6803F00203BE
:101F5C00002B20D07B681B6803F00403002B05D0FA
:101F6C00594B5B68584A43F4E06353607B681B68C9
:101F7C0003F00803002B05D0534B5B68524A43F423
:101F8C0060535360504B5B6823F0F0027B689B6896
:101F9C004D4913434B607B681B6803F00103002B16
:101FAC0040D07B685B68012B07D1474B1B6803F45F
:101FBC000033002B15D101237FE07B685B68022B7B
:101FCC0007D1414B1B6803F00073002B09D101238F
:101FDC0073E03D4B1B6803F00203002B01D101237E
:101FEC006BE0394B5B6823F003027B685B68364916
:101FFC0013434B60FFF72CFAF8600AE0FFF728FA5E
:10200C000246FB68D31A41F28832934201D903236A
:10201C0053E02D4B5B6803F00C027B685B689B0004
:10202C009A42EBD1274B1B6803F007033A689A429C
:10203C0010D2244B1B6823F0070222493B68134340
:10204C000B60204B1B6803F007033A689A4201D0DF
:10205C00012332E07B681B6803F00403002B08D0DB
:10206C00194B5B6823F4E0627B68DB681649134309
:10207C004B607B681B6803F00803002B09D0124BE4
:10208C005B6823F460527B681B69DB000E491343C9
:10209C004B6000F021F802460B4B5B681B0903F008
:1020AC000F030A49CB5C22FA03F3094A1360094B6C
:1020BC001B681846FFF78AF9002318461037BD46EF
:1020CC0080BD00BF0020024000100240F029000833
:1020DC00200000202400002080B487B000AF002333
:1020EC00FB600023BB6000237B6100237B6000232B
:1020FC003B611E4B5B68FB60FB6803F00C03042B1D
:10210C0002D0082B03D027E0194B3B6127E0FB687A
:10211C009B0C03F00F03174AD35C7B60FB6803F442
:10212C008033002B10D0114B5B685B0C03F0010368
:10213C00114AD35CBB607B680D4A02FB03F2BB689F
:10214C00B2FBF3F37B6104E07B680C4A02FB03F304
:10215C007B617B693B6102E0054B3B6100BF3B69E6
:10216C0018461C37BD4680BC704700BF00100240AB
:10217C0000127A00002A0008102A000800093D000D
:10218C0080B485B000AF78600A4B1B680A4AA2FB8A
:10219C0003235B0A7A6802FB03F3FB6000BFFB6856
:1021AC005A1EFA60002BF9D100BF00BF1437BD4690
:1021BC0080BC704720000020D34D621080B582B0E7
:1021CC0000AF78607B68002B01D1012341E07B6874
:1021DC0093F83D30DBB2002B06D17B68002283F8EC
:1021EC003C207868FFF75AF87B68022283F83D2080
:1021FC007B681A687B6804331946104600F056FA5F
:10220C007B68012283F846207B68012283F83E20FC
:10221C007B68012283F83F207B68012283F84020F1
:10222C007B68012283F841207B68012283F84220DD
:10223C007B68012283F843207B68012283F84420C9
:10224C007B68012283F845207B68012283F83D20BE
:10225C00002318460837BD4680BD000080B485B009
:10226C0000AF78607B6893F83D30DBB2012B01D076
:10227C00012335E07B68022283F83D207B681B68D4
:10228C00DA687B681B6842F00102DA607B681B68C5
:10229C00164A934209D07B681B68B3F1804F04D077
:1022AC007B681B68124A934211D17B681B689B6840
:1022BC0003F00703FB60FB68062B10D07B681B68E0
:1022CC001A687B681B6842F001021A6007E07B68A1
:1022DC001B681A687B681B6842F001021A600023B5
:1022EC0018461437BD4680BC704700BF002C014017
:1022FC000004004080B584B000AF78607B681B6838
:10230C00DB68FB607B681B681B69BB60BB6803F008
:10231C000203002B20D0FB6803F00203002B1BD020
:10232C007B681B686FF002021A617B6801221A77C6
:10233C007B681B689B6903F00303002B03D0786850
:10234C0000F098F905E0786800F08BF9786800F0F7
:10235C009AF97B6800221A77BB6803F00403002B00
:10236C0020D0FB6803F00403002B1BD07B681B6898
:10237C006FF004021A617B6802221A777B681B6873
:10238C009B6903F44073002B03D0786800F072F95A
:10239C0005E0786800F065F9786800F074F97B68FE
:1023AC0000221A77BB6803F00803002B20D0FB68CF
:1023BC0003F00803002B1BD07B681B686FF008022E
:1023CC001A617B6804221A777B681B68DB6903F04F
:1023DC000303002B03D0786800F04CF905E0786813
:1023EC0000F03FF9786800F04EF97B6800221A770C
:1023FC00BB6803F01003002B20D0FB6803F0100324
:10240C00002B1BD07B681B686FF010021A617B6875
:10241C0008221A777B681B68DB6903F44073002B76
:10242C0003D0786800F026F905E0786800F019F917
:10243C00786800F028F97B6800221A77BB6803F0F3
:10244C000103002B0CD0FB6803F00103002B07D019
:10245C007B681B686FF001021A617868FEF75CFEFE
:10246C00BB6803F08003002B0CD0FB6803F08003E7
:10247C00002B07D07B681B686FF080021A617868AC
:10248C0000F06FFABB6803F04003002B0CD0FB6824
:10249C0003F04003002B07D07B681B686FF04002F1
:1024AC001A61786800F0F8F8BB6803F02003002B81
:1024BC000CD0FB6803F02003002B07D07B681B6853
:1024CC006FF020021A61786800F042FA00BF1037F2
:1024DC00BD4680BD80B584B000AF78603960002304
:1024EC00FB737B6893F83C30012B01D10223B4E0E1
:1024FC007B68012283F83C207B68022283F83D2014
:10250C007B681B689B68BB60BB6823F07703BB6070
:10251C00BB6823F47F43BB607B681B68BA689A6016
:10252C003B681B68B3F5005F3ED0B3F5005F00F26B
:10253C008780B3F5805F00F08680B3F5805F7FD82D
:10254C00702B1AD0702B7BD8602B50D0602B77D887
:10255C00502B3CD0502B73D8402B58D0402B6FD8DD
:10256C00302B64D0302B6BD8202B60D0202B67D82D
:10257C00002B5CD0102B5AD062E07B6818683B684B
:10258C0099683B685A683B68DB6800F06AF97B68BD
:10259C001B689B68BB60BB6843F07703BB607B68C0
:1025AC001B68BA689A604FE07B6818683B6899684A
:1025BC003B685A683B68DB6800F053F97B681B6822
:1025CC009A687B681B6842F480429A603CE07B68A6
:1025DC0018683B6859683B68DB681A4600F0CAF813
:1025EC007B681B685021184600F021F92CE07B68B1
:1025FC0018683B6859683B68DB681A4600F0E8F8D5
:10260C007B681B686021184600F011F91CE07B68A0
:10261C0018683B6859683B68DB681A4600F0AAF8F2
:10262C007B681B684021184600F001F90CE07B68C0
:10263C001A683B681B681946104600F0F8F803E06E
:10264C000123FB7300E000BF7B68012283F83D206F
:10265C007B68002283F83C20FB7B18461037BD4674
:10266C0080BD80B483B000AF786000BF0C37BD462E
:10267C0080BC704780B483B000AF786000BF0C376B
:10268C00BD4680BC704780B483B000AF786000BF9B
:10269C000C37BD4680BC704780B483B000AF786007
:1026AC0000BF0C37BD4680BC7047000080B485B0BD
:1026BC0000AF786039607B681B68FB607B682B4AD5
:1026CC00934207D07B68B3F1804F03D07B68284AD4
:1026DC00934208D1FB6823F07003FB603B685B6896
:1026EC00FA681343FB607B68204A934207D07B68EF
:1026FC00B3F1804F03D07B681D4A934208D1FB682D
:10270C0023F44073FB603B68DB68FA681343FB609F
:10271C00FB6823F080023B685B691343FB607B68BA
:10272C00FA681A603B689A687B68DA623B681A68D8
:10273C007B689A627B680D4A934203D13B681A69A5
:10274C007B681A637B6801225A617B681B6903F002
:10275C000103002B05D07B681B6923F001027B6809
:10276C001A6100BF1437BD4680BC7047002C014075
:10277C000004004080B487B000AFF860B9607A60A4
:10278C00FB681B6A7B61FB681B6A23F00102FB6818
:10279C001A62FB689B693B613B6923F0F0033B6168
:1027AC007B681B013A6913433B617B6923F00A0385
:1027BC007B617A69BB6813437B61FB683A699A61F8
:1027CC00FB687A691A6200BF1C37BD4680BC704733
:1027DC0080B487B000AFF860B9607A60FB681B6AA0
:1027EC007B61FB681B6A23F01002FB681A62FB68B2
:1027FC009B693B613B6923F470433B617B681B0322
:10280C003A6913433B617B6923F0A0037B61BB688E
:10281C001B017A6913437B61FB683A699A61FB6817
:10282C007A691A6200BF1C37BD4680BC704780B401
:10283C0085B000AF786039607B689B68FB60FB6893
:10284C0023F07003FB603A68FB68134343F0070303
:10285C00FB607B68FA689A6000BF1437BD4680BC89
:10286C00704780B487B000AFF860B9607A603B60A5
:10287C00FB689B687B617B6923F47F437B613B68CE
:10288C001A027B681A43BB6813437A6913437B6152
:10289C00FB687A699A6000BF1C37BD4680BC7047E4
:1028AC0080B485B000AF786039607B6893F83C30B9
:1028BC00012B01D1022341E07B68012283F83C20EB
:1028CC007B68022283F83D207B681B685B68FB6099
:1028DC007B681B689B68BB60FB6823F07003FB6024
:1028EC003B681B68FA681343FB607B681B68FA68DB
:1028FC005A607B681B68144A934209D07B681B683A
:10290C00B3F1804F04D07B681B68104A93420CD102
:10291C00BB6823F08003BB603B685B68BA681343F9
:10292C00BB607B681B68BA689A607B68012283F87D
:10293C003D207B68002283F83C2000231846143786
:10294C00BD4680BC704700BF002C01400004004015
:10295C0080B483B000AF786000BF0C37BD4680BC3C
:10296C00704780B483B000AF786000BF0C37BD46B1
:10297C0080BC704770B500260C4D0D4C641BA41028
:10298C00A64209D100F022F800260A4D0A4C641B1D
:10299C00A410A64205D170BD55F8043B98470136EA
:1029AC00EEE755F8043B98470136F2E7142A000885
:1029BC00142A0008142A0008182A000803460244A6
:1029CC00934200D1704703F8011BF9E7F8B500BF3B
:1029DC00F8BC08BC9E467047F8B500BFF8BC08BCF4
:0429EC009E4670474C
:1029F00000000000000000000102030406070809AF
:102A000002030405060708090A0B0C0D0E0F10102F
:042A100001020000BF
:042A14003101000884
:042A18000D010008A4
:102A1C000100000001000000010000000A0000009D
:102A2C00010000000500000002000000030000008F
:0C2A3C0000127A001000000001000000F1
:04000005080013617B
:00000001FF
