:020000040800F2
:1000000000280020E133000871330008773300082E
:100010007D330008833300088933000800000000A6
:100020000000000000000000000000008F33000806
:100030009B33000800000000A7330008B33300081A
:10004000293400082934000829340008293400081C
:10005000293400082934000829340008293400080C
:1000600029340008293400082934000829340008FC
:1000700029340008293400082934000829340008EC
:1000800029340008293400082934000829340008DC
:1000900029340008293400082934000829340008CC
:1000A00029340008293400082934000829340008BC
:1000B000C13300082934000800000000293400087A
:1000C0002934000800000000000000002934000866
:1000D0000000000029340008293400080000000056
:1000E00029340008293400082934000800000000E1
:1000F0000000000000000000000000000000000000
:0C01000000000000000000005FF808F1A3
:10010C0010B5054C237833B9044B13B10448AFF345
:10011C0000800123237010BD280000200000000087
:10012C002C4A000808B5034B1BB103490348AFF335
:10013C00008008BD000000002C0000202C4A0008A4
:10014C0080B500AF03F06CF900F0BEF800F044F994
:10015C0000F0F6F8534804F0ABF8012003F02EF849
:10016C00642003F03FF80A2003F050F84E4B1B6854
:10017C00012B6DD14D4B1B680133082293FBF2F11F
:10018C0002FB01F29B1A494A1360494B1B68082B6E
:10019C004AD801A252F823F0C9010008D501000881
:1001AC00E1010008ED010008F90100080502000852
:1001BC00110200081D020008290200083B4B1B68B5
:1001CC00184602F05DFA30E0384B1B68184602F016
:1001DC00F5FA2AE0354B1B68184602F08DFB24E03B
:1001EC00324B1B68184602F025FC1EE02F4B1B6897
:1001FC00184602F0BDFC18E02C4B1B68184602F0A8
:10020C0055FD12E0294B1B68184602F0EDFD0CE081
:10021C00264B1B68184602F085FE06E0234B1B6834
:10022C00184602F01DFF00E000BF224B1B68184669
:10023C0000F0AEFA1F4B1B680133042293FBF2F162
:10024C0002FB01F29B1A1B4A1360642002F0B6FFFA
:10025C00194B1B68012B0CD12021184803F0E2FB31
:10026C0000F0F6FA1021154803F0DCFB642002F0D4
:10027C00B9FF134B1B68012B7FF478AF0C4B1B6839
:10028C00591C104B83FB01235A10CB17D21A13465F
:10029C00DB001344CA1A064B1A60642002F0B6FF46
:1002AC0064E700BF680000205400002048000020D4
:1002BC004C000020440000205C000020000801409D
:1002CC0064000020398EE33880B590B000AF07F1A0
:1002DC00180328220021184604F09AFB3B1D00222B
:1002EC001A605A609A60DA601A610223BB610123BA
:1002FC00BB621023FB6200237B6307F118031846D3
:10030C0003F0AAFB0346002B01D002F051FF0F2390
:10031C007B600023BB600023FB6000233B61002358
:10032C007B613B1D0021184603F016FE0346002B93
:10033C0001D002F03DFF00BF4037BD4680BD00003C
:10034C0080B586B000AF07F1080300221A605A602E
:10035C009A60DA603B4600221A605A601D4B4FF0DF
:10036C0080421A601B4B41F63F725A60194B0022B7
:10037C009A60184B0922DA60164B00221A61154B51
:10038C0000229A61134803F043FF0346002B01D06F
:10039C0002F00EFF4FF48053BB6007F108031946BF
:1003AC000C4804F0C1F80346002B01D002F000FF0A
:1003BC0000233B6000237B603B461946054804F054
:1003CC0099FA0346002B01D002F0F2FE00BF183759
:1003DC00BD4680BD6800002080B586B000AF07F137
:1003EC00080300221A605A609A60DA60224B9B69FB
:1003FC00214A43F0040393611F4B9B6903F00403F0
:10040C007B607B681C4B9B691B4A43F00803936120
:10041C00194B9B6903F008033B603B6800224FF6C5
:10042C00FC71164803F0E6FA00224FF67F7114486F
:10043C0003F0E0FA4FF6FC73BB600123FB60002372
:10044C003B6102237B6107F1080319460B4803F05B
:10045C0057F94FF67F73BB600123FB6000233B61B0
:10046C0002237B6107F108031946054803F048F99C
:10047C0000BF1837BD4680BD001002400008014087
:10048C00000C014080B582B000AF78607B68002B17
:10049C0022D100220121BD4803F0ACFA0022022136
:1004AC00BA4803F0A7FA00220421B84803F0A2FAD4
:1004BC0000220821B54803F09DFA00221021B34810
:1004CC0003F098FA00222021B04803F093FA01229D
:1004DC004021AE4803F08EFA7B68012B22D1012219
:1004EC000121AA4803F086FA00220221A74803F052
:1004FC0081FA00220421A54803F07CFA012208218C
:10050C00A24803F077FA01221021A04803F072FAF6
:10051C00012220219D4803F06DFA012240219B48C5
:10052C0003F068FA7B68022B22D100220121974844
:10053C0003F060FA00220221944803F05BFA0122D6
:10054C000421924803F056FA002208218F4803F048
:10055C0051FA002210218D4803F04CFA012220217F
:10056C008A4803F047FA00224021884803F042FAF7
:10057C007B68032B22D100220121844803F03AFA34
:10058C0000220221814803F035FA002204217F4821
:10059C0003F030FA002208217C4803F02BFA0122E8
:1005AC0010217A4803F026FA01222021774803F023
:1005BC0021FA00224021754803F01CFA7B68042BB9
:1005CC0022D101220121714803F014FA00220221E8
:1005DC006E4803F00FFA002204216C4803F00AFA6B
:1005EC0001220821694803F005FA0122102167480D
:1005FC0003F000FA00222021644803F0FBF90022EA
:10060C004021624803F0F6F97B68052B22D10022C9
:10061C0001215E4803F0EEF9012202215B4803F050
:10062C00E9F900220421594803F0E4F900220821D9
:10063C00564803F0DFF901221021544803F0DAF98F
:10064C0000222021514803F0D5F9002240214F48C7
:10065C0003F0D0F97B68062B22D1002201214B48F4
:10066C0003F0C8F901220221484803F0C3F9002223
:10067C000421464803F0BEF900220821434803F048
:10068C00B9F900221021414803F0B4F900222021CD
:10069C003E4803F0AFF9002240213C4803F0AAF990
:1006AC007B68072B22D100220121384803F0A2F9E4
:1006BC0000220221354803F09DF900220421334821
:1006CC0003F098F901220821304803F093F9012234
:1006DC0010212E4803F08EF9012220212B4803F023
:1006EC0089F901224021294803F084F97B68082B01
:1006FC0022D100220121254803F07CF9002202219D
:10070C00224803F077F900220421204803F072F903
:10071C00002208211D4803F06DF9002210211B480E
:10072C0003F068F900222021184803F063F9002235
:10073C004021164803F05EF97B68092B22D1002278
:10074C000121124803F056F9002202210F4803F050
:10075C0051F9002204210D4803F04CF90022082124
:10076C000A4803F047F901221021084803F042F926
:10077C0000222021054803F03DF9002240210348C6
:10078C0003F038F900BF0837BD4680BD000C0140AE
:10079C0080B582B000AF7860012240212A4803F076
:1007AC0029F901228021284803F024F901224FF471
:1007BC008071254803F01EF901224FF40071224884
:1007CC0003F018F97B68032B38D801A252F823F0F8
:1007DC00ED07000803080008190800083108000894
:1007EC001A4B1B681846FFF74DFE00224021164895
:1007FC0003F000F923E0154B5B681846FFF742FE47
:10080C0000228021104803F0F5F818E00F4B9B688C
:10081C001846FFF737FE00224FF480710A4803F0A8
:10082C00E9F80CE0094BDB681846FFF72BFE0022B9
:10083C004FF40071044803F0DDF800E000BF00BF86
:10084C000837BD4680BD00BF0008014000000020F5
:10085C0080B400AF2C4B1B6801332B4A13602A4B1E
:10086C001B683B2B07DD284B00221A60274B1B68AB
:10087C000133264A1360254B1B683B2B07DD234BAA
:10088C0000221A60224B1B680133214A1360204B53
:10089C001B68172B02DD1E4B00221A601C4B1B68B9
:1008AC001C4A82FB03129210DB17D31A1A4A1360EC
:1008BC00174B1968174B83FB01239A10CB17D21ACD
:1008CC0013469B0013445B00CA1A134B5A600F4B20
:1008DC001B68104A82FB03129210DB17D31A0E4AC4
:1008EC0093600A4B19680B4B83FB01239A10CB17AF
:1008FC00D21A13469B0013445B00CA1A064BDA60EB
:10090C0000BFBD4680BC70471800002014000020BA
:10091C0010000020676666660000002080B582B07B
:10092C0000AF78607B68002B2FD101224FF48071CF
:10093C00CA4803F05FF801224FF40071C74803F076
:10094C0059F800224FF48061C44803F053F8002298
:10095C004FF40061C14803F04DF800224FF4805170
:10096C00BE4803F047F800224FF40051BB4803F097
:10097C0041F800224FF48041B84803F03BF80122C3
:10098C004FF40041B54803F035F87B68012B2FD1AB
:10099C0001224FF48071B14803F02CF800224FF47F
:1009AC000071AE4803F026F801224FF48061AB4889
:1009BC0003F020F801224FF40061A84803F01AF864
:1009CC0000224FF48051A54803F014F801224FF493
:1009DC000051A24803F00EF801224FF480419F48C9
:1009EC0003F008F801224FF400419C4803F002F890
:1009FC007B68022B2FD100224FF48071974802F0B4
:100A0C00F9FF01224FF40071944802F0F3FF012228
:100A1C004FF48061914802F0EDFF01224FF4006128
:100A2C008E4802F0E7FF00224FF480518B4802F011
:100A3C00E1FF01224FF40051884802F0DBFF012254
:100A4C004FF48041854802F0D5FF01224FF400415C
:100A5C00824802F0CFFF7B68032B2FD100224FF48A
:100A6C0080717E4802F0C6FF01224FF400717B4872
:100A7C0002F0C0FF01224FF48061784802F0BAFF07
:100A8C0001224FF40061754802F0B4FF00224FF4CC
:100A9C008051724802F0AEFF01224FF400516F48B2
:100AAC0002F0A8FF01224FF480416C4802F0A2FF33
:100ABC0001224FF40041694802F09CFF7B68042B33
:100ACC002FD100224FF48071644802F093FF012271
:100ADC004FF40071614802F08DFF01224FF48061E8
:100AEC005E4802F087FF01224FF400615B4802F080
:100AFC0081FF00224FF48051584802F07BFF012205
:100B0C004FF40051554802F075FF01224FF480411B
:100B1C00524802F06FFF01224FF400414F4802F09F
:100B2C0069FF7B68052B2FD100224FF480714B4855
:100B3C0002F060FF01224FF40071484802F05AFFA6
:100B4C0001224FF48061454802F054FF01224FF41A
:100B5C000061424802F04EFF00224FF480513F48A2
:100B6C0002F048FF01224FF400513C4802F042FFD2
:100B7C0001224FF48041394802F03CFF01224FF42E
:100B8C000041364802F036FF7B68062B2FD101223C
:100B9C004FF48071314802F02DFF00224FF40071A8
:100BAC002E4802F027FF01224FF480612B4802F0FF
:100BBC0021FF01224FF40061284802F01BFF0022A4
:100BCC004FF48051254802F015FF01224FF40051DB
:100BDC00224802F00FFF01224FF480411F4802F01F
:100BEC0009FF01224FF400411C4802F003FF7B680F
:100BFC00072B2FD101224FF48071184802F0FAFE16
:100C0C0001224FF40071154802F0F4FE00224FF45B
:100C1C008061124802F0EEFE00224FF400610F4892
:100C2C0002F0E8FE00224FF480510C4802F0E2FE84
:100C3C0000224FF40051094802F0DCFE00224FF470
:100C4C008041064802F0D6FE01224FF400410348D1
:100C5C0002F0D0FE00BF0837BD4680BD000C01403D
:100C6C0080B582B000AF78607B68002B2FD1012259
:100C7C004FF48071CA4802F0BDFE01224FF400719E
:100C8C00C74802F0B7FE01224FF48061C44802F05D
:100C9C00B1FE01224FF40061C14802F0ABFE01220B
:100CAC004FF48051BE4802F0A5FE01224FF40051D2
:100CBC00BB4802F09FFE01224FF48041B84802F07D
:100CCC0099FE01224FF40041B54802F093FE7B6877
:100CDC00012B2FD101224FF48071B14802F08AFE12
:100CEC0001224FF40071AE4802F084FE00224FF452
:100CFC008061AB4802F07EFE00224FF40061A848F0
:100D0C0002F078FE00224FF48051A54802F072FEEA
:100D1C0000224FF40051A24802F06CFE00224FF466
:100D2C0080419F4802F066FE01224FF400419C482E
:100D3C0002F060FE7B68022B2FD101224FF48071F0
:100D4C00974802F057FE00224FF40071944802F0CD
:100D5C0051FE01224FF48061914802F04BFE0122BA
:100D6C004FF400618E4802F045FE00224FF4805192
:100D7C008B4802F03FFE01224FF40051884802F0EC
:100D8C0039FE01224FF48041854802F033FE0122E6
:100D9C004FF40041824802F02DFE7B68032B2FD1CB
:100DAC0000224FF480717E4802F024FE01224FF4A1
:100DBC0000717B4802F01EFE01224FF480617848DE
:100DCC0002F018FE01224FF40061754802F012FE89
:100DDC0000224FF48051724802F00CFE01224FF4B5
:100DEC0000516F4802F006FE01224FF480416C481E
:100DFC0002F000FE01224FF40041694802F0FAFDB6
:100E0C007B68042B2FD100224FF48071644802F0D0
:100E1C00F1FD01224FF40071614802F0EBFD01225B
:100E2C004FF480615E4802F0E5FD01224FF4006151
:100E3C005B4802F0DFFD00224FF48051584802F06D
:100E4C00D9FD01224FF40051554802F0D3FD012287
:100E5C004FF48041524802F0CDFD01224FF4004185
:100E6C004F4802F0C7FD7B68052B2FD100224FF4B1
:100E7C0080714B4802F0BEFD01224FF400714848CE
:100E8C0002F0B8FD01224FF48061454802F0B2FD3A
:100E9C0001224FF40061424802F0ACFD00224FF4F5
:100EAC0080513F4802F0A6FD01224FF400513C480E
:100EBC0002F0A0FD01224FF48041394802F09AFD66
:100ECC0001224FF40041364802F094FD7B68062B5A
:100EDC002FD100224FF48071314802F08BFD01229A
:100EEC004FF400712E4802F085FD01224FF4806111
:100EFC002B4802F07FFD01224FF40061284802F0DC
:100F0C0079FD00224FF48051254802F073FD012237
:100F1C004FF40051224802F06DFD01224FF4804144
:100F2C001F4802F067FD01224FF400411C4802F0FB
:100F3C0061FD7B68072B2FD101224FF4807118487B
:100F4C0002F058FD00224FF40071154802F052FDDA
:100F5C0001224FF48061124802F04CFD01224FF443
:100F6C0000610F4802F046FD00224FF480510C48FE
:100F7C0002F040FD01224FF40051094802F03AFD05
:100F8C0001224FF48041064802F034FD01224FF457
:100F9C000041034802F02EFD00BF0837BD4680BD5E
:100FAC00000C014080B582B000AF78607B68002BEC
:100FBC002FD101224FF48071CA4802F01BFD01228F
:100FCC004FF40071C74802F015FD00224FF4806108
:100FDC00C44802F00FFD00224FF40061C14802F03A
:100FEC0009FD00224FF48051BE4802F003FD00229F
:100FFC004FF40051BB4802F0FDFC00224FF480413D
:10100C00B84802F0F7FC01224FF40041B54802F059
:10101C00F1FC7B68012B2FD101224FF48071B14878
:10102C0002F0E8FC01224FF40071AE4802F0E2FC41
:10103C0001224FF48061AB4802F0DCFC01224FF43A
:10104C000061A84802F0D6FC01224FF48051A5485B
:10105C0002F0D0FC01224FF40051A24802F0CAFC6D
:10106C0001224FF480419F4802F0C4FC01224FF44E
:10107C0000419C4802F0BEFC7B68022B2FD1012260
:10108C004FF48071974802F0B5FC01224FF40071C7
:10109C00944802F0AFFC00224FF48061914802F0BA
:1010AC00A9FC00224FF400618E4802F0A3FC002240
:1010BC004FF480518B4802F09DFC00224FF40051FC
:1010CC00884802F097FC00224FF48041854802F0DA
:1010DC0091FC01224FF40041824802F08BFC7B68AA
:1010EC00032B2FD101224FF480717E4802F082FC39
:1010FC0000224FF400717B4802F07CFC01224FF47B
:10110C008061784802F076FC01224FF4006175484A
:10111C0002F070FC00224FF48051724802F06AFC1D
:10112C0001224FF400516F4802F064FC01224FF48D
:10113C0080416C4802F05EFC01224FF4004169488A
:10114C0002F058FC7B68042B2FD100224FF48071E5
:10115C00644802F04FFC01224FF40071614802F028
:10116C0049FC01224FF480615E4802F043FC0122ED
:10117C004FF400615B4802F03DFC00224FF48051BB
:10118C00584802F037FC01224FF40051554802F048
:10119C0031FC01224FF48041524802F02BFC012219
:1011AC004FF400414F4802F025FC7B68052B2FD1F2
:1011BC0000224FF480714B4802F01CFC01224FF4CA
:1011CC000071484802F016FC01224FF4806145483A
:1011DC0002F010FC01224FF40061424802F00AFCBC
:1011EC0000224FF480513F4802F004FC01224FF4DE
:1011FC0000513C4802F0FEFB01224FF4804139487B
:10120C0002F0F8FB01224FF40041364802F0F2FBE9
:10121C007B68062B2FD100224FF48071314802F0ED
:10122C00E9FB01224FF400712E4802F0E3FB01228E
:10123C004FF480612B4802F0DDFB01224FF400617A
:10124C00284802F0D7FB00224FF48051254802F0C9
:10125C00D1FB01224FF40051224802F0CBFB0122BA
:10126C004FF480411F4802F0C5FB01224FF40041AE
:10127C001C4802F0BFFB7B68072B2FD100224FF4D8
:10128C008071184802F0B6FB01224FF4007115482A
:10129C0002F0B0FB01224FF48061124802F0AAFB6D
:1012AC0001224FF400610F4802F0A4FB00224FF41E
:1012BC0080510C4802F09EFB01224FF4005109486A
:1012CC0002F098FB01224FF48041064802F092FB99
:1012DC0001224FF40041034802F08CFB00BF083799
:1012EC00BD4680BD000C014080B582B000AF786077
:1012FC007B68002B2FD101224FF48071CA4802F079
:10130C0079FB00224FF40071C74802F073FB0122F5
:10131C004FF48061C44802F06DFB01224FF4006170
:10132C00C14802F067FB00224FF48051BE4802F026
:10133C0061FB01224FF40051BB4802F05BFB012220
:10134C004FF48041B84802F055FB01224FF40041A4
:10135C00B54802F04FFB7B68012B2FD101224FF4D3
:10136C008071B14802F046FB01224FF40071AE4887
:10137C0002F040FB00224FF48061AB4802F03AFBD4
:10138C0000224FF40061A84802F034FB00224FF415
:10139C008051A54802F02EFB00224FF40051A248C8
:1013AC0002F028FB00224FF480419F4802F022FB00
:1013BC0001224FF400419C4802F01CFB7B68022B7D
:1013CC002FD101224FF48071974802F013FB0122B8
:1013DC004FF40071944802F00DFB01224FF4806130
:1013EC00914802F007FB01224FF400618E4802F095
:1013FC0001FB01224FF480518B4802F0FBFA0122D1
:10140C004FF40051884802F0F5FA01224FF4804164
:10141C00854802F0EFFA01224FF40041824802F0B5
:10142C00E9FA7B68032B2FD101224FF480717E489F
:10143C0002F0E0FA01224FF400717B4802F0DAFA74
:10144C0000224FF48061784802F0D4FA00224FF465
:10145C000061754802F0CEFA00224FF480517248B8
:10146C0002F0C8FA00224FF400516F4802F0C2FAA1
:10147C0000224FF480416C4802F0BCFA01224FF478
:10148C000041694802F0B6FA7B68042B2FD1012287
:10149C004FF48071644802F0ADFA00224FF40071F1
:1014AC00614802F0A7FA01224FF480615E4802F015
:1014BC00A1FA01224FF400615B4802F09BFA002272
:1014CC004FF48051584802F095FA01224FF4005124
:1014DC00554802F08FFA01224FF48041524802F035
:1014EC0089FA01224FF400414F4802F083FA7B68DD
:1014FC00052B2FD100224FF480714B4802F07AFA61
:10150C0001224FF40071484802F074FA01224FF4A2
:10151C008061454802F06EFA01224FF400614248A6
:10152C0002F068FA00224FF480513F4802F062FA50
:10153C0001224FF400513C4802F05CFA01224FF4B6
:10154C008041394802F056FA01224FF400413648E6
:10155C0002F050FA7B68062B2FD100224FF48071D9
:10156C00314802F047FA01224FF400712E4802F084
:10157C0041FA01224FF480612B4802F03BFA012220
:10158C004FF40061284802F035FA00224FF48051E4
:10159C00254802F02FFA01224FF40051224802F0A4
:1015AC0029FA01224FF480411F4802F023FA01224C
:1015BC004FF400411C4802F01DFA7B68072B2FD119
:1015CC0000224FF48071184802F014FA01224FF4F3
:1015DC000071154802F00EFA01224FF48061124896
:1015EC0002F008FA01224FF400610F4802F002FAEF
:1015FC0000224FF480510C4802F0FCF901224FF408
:10160C000051094802F0F6F901224FF480410648D6
:10161C0002F0F0F901224FF40041034802F0EAF91C
:10162C0000BF0837BD4680BD000C014080B582B0BC
:10163C0000AF78607B68002B2FD100224FF48071B3
:10164C00CA4802F0D7F901224FF40071C74802F0E2
:10165C00D1F901224FF48061C44802F0CBF9012288
:10166C004FF40061C14802F0C5F900224FF48051DB
:10167C00BE4802F0BFF901224FF40051BB4802F002
:10168C00B9F901224FF48041B84802F0B3F90122B4
:10169C004FF40041B54802F0ADF97B68012B2FD116
:1016AC0001224FF48071B14802F0A4F900224FF4EA
:1016BC000071AE4802F09EF901224FF48061AB48F4
:1016CC0002F098F901224FF40061A84802F092F957
:1016DC0000224FF48051A54802F08CF901224FF4FE
:1016EC000051A24802F086F901224FF480419F4834
:1016FC0002F080F901224FF400419C4802F07AF983
:10170C007B68022B2FD101224FF48071974802F095
:10171C0071F901224FF40071944802F06BF9002228
:10172C004FF48061914802F065F900224FF400619A
:10173C008E4802F05FF900224FF480518B4802F082
:10174C0059F900224FF40051884802F053F9002255
:10175C004FF48041854802F04DF901224FF40041CD
:10176C00824802F047F97B68032B2FD101224FF4FA
:10177C0080717E4802F03EF901224FF400717B48E3
:10178C0002F038F901224FF48061784802F032F906
:10179C0001224FF40061754802F02CF901224FF43C
:1017AC008051724802F026F901224FF400516F4823
:1017BC0002F020F901224FF480416C4802F01AF932
:1017CC0001224FF40041694802F014F97B68042BA4
:1017DC002FD101224FF48071644802F00BF90122E1
:1017EC004FF40071614802F005F900224FF480615A
:1017FC005E4802F0FFF800224FF400615B4802F0F3
:10180C00F9F800224FF48051584802F0F3F8002206
:10181C004FF40051554802F0EDF800224FF480418E
:10182C00524802F0E7F801224FF400414F4802F011
:10183C00E1F87B68052B2FD101224FF480714B48C6
:10184C0002F0D8F800224FF40071484802F0D2F8A8
:10185C0001224FF48061454802F0CCF801224FF48C
:10186C000061424802F0C6F800224FF480513F4814
:10187C0002F0C0F801224FF400513C4802F0BAF8D3
:10188C0001224FF48041394802F0B4F801224FF4A0
:10189C000041364802F0AEF87B68062B2FD10022AF
:1018AC004FF48071314802F0A5F801224FF4007119
:1018BC002E4802F09FF801224FF480612B4802F071
:1018CC0099F801224FF40061284802F093F80022A5
:1018DC004FF48051254802F08DF801224FF400514D
:1018EC00224802F087F801224FF480411F4802F091
:1018FC0081F801224FF400411C4802F07BF87B6810
:10190C00072B2FD100224FF48071184802F072F887
:10191C0001224FF40071154802F06CF801224FF4CB
:10192C008061124802F066F801224FF400610F4802
:10193C0002F060F800224FF480510C4802F05AF883
:10194C0001224FF40051094802F054F801224FF4DF
:10195C008041064802F04EF801224FF40041034842
:10196C0002F048F800BF0837BD4680BD000C0140AE
:10197C0080B582B000AF78607B68002B2FD100223D
:10198C004FF48071CA4802F035F801224FF400710F
:10199C00C74802F02FF801224FF48061C44802F0CE
:1019AC0029F801224FF40061C14802F023F800220B
:1019BC004FF48051BE4802F01DF801224FF4005143
:1019CC00BB4802F017F801224FF48041B84802F0EE
:1019DC0011F801224FF40041B54802F00BF87B6876
:1019EC00012B2FD100224FF48071B14802F002F884
:1019FC0001224FF40071AE4801F0FCFF01224FF4BC
:101A0C008061AB4801F0F6FF01224FF40061A84859
:101A1C0001F0F0FF00224FF48051A54801F0EAFFDD
:101A2C0001224FF40051A24801F0E4FF01224FF4CF
:101A3C0080419F4801F0DEFF01224FF400419C4899
:101A4C0001F0D8FF7B68022B2FD100224FF480715C
:101A5C00974801F0CFFF01224FF40071944801F038
:101A6C00C9FF01224FF48061914801F0C3FF0122AC
:101A7C004FF400618E4801F0BDFF00224FF48051FD
:101A8C008B4801F0B7FF01224FF40051884801F058
:101A9C00B1FF01224FF48041854801F0ABFF0122D8
:101AAC004FF40041824801F0A5FF7B68032B2FD136
:101ABC0001224FF480717E4801F09CFF00224FF40C
:101ACC0000717B4801F096FF01224FF48061784849
:101ADC0001F090FF01224FF40061754801F08AFF7C
:101AEC0000224FF48051724801F084FF01224FF420
:101AFC0000516F4801F07EFF01224FF480416C4889
:101B0C0001F078FF01224FF40041694801F072FFA7
:101B1C007B68042B2FD101224FF48071644801F0B3
:101B2C0069FF01224FF40071614801F063FF00224C
:101B3C004FF480615E4801F05DFF00224FF40061BC
:101B4C005B4801F057FF00224FF48051584801F0D8
:101B5C0051FF00224FF40051554801F04BFF002279
:101B6C004FF48041524801F045FF01224FF40041EF
:101B7C004F4801F03FFF7B68052B2FD101224FF41A
:101B8C0080714B4801F036FF01224FF40071484838
:101B9C0001F030FF01224FF48061454801F02AFF2B
:101BAC0001224FF40061424801F024FF01224FF45E
:101BBC0080513F4801F01EFF01224FF400513C4878
:101BCC0001F018FF01224FF48041394801F012FF57
:101BDC0001224FF40041364801F00CFF7B68062BC4
:101BEC002FD101224FF48071314801F003FF012203
:101BFC004FF400712E4801F0FDFE00224FF480617D
:101C0C002B4801F0F7FE00224FF40061284801F048
:101C1C00F1FE00224FF48051254801F0EBFE00222A
:101C2C004FF40051224801F0E5FE00224FF48041B0
:101C3C001F4801F0DFFE01224FF400411C4801F067
:101C4C00D9FE7B68072B2FD101224FF480711848E5
:101C5C0001F0D0FE00224FF40071154801F0CAFECD
:101C6C0001224FF48061124801F0C4FE01224FF4AE
:101C7C0000610F4801F0BEFE00224FF480510C4869
:101C8C0001F0B8FE01224FF40051094801F0B2FEF8
:101C9C0001224FF48041064801F0ACFE01224FF4C2
:101CAC000041034801F0A6FE00BF0837BD4680BDC9
:101CBC00000C014080B582B000AF78607B68002BCF
:101CCC002FD100224FF48071CA4801F093FE0122FB
:101CDC004FF40071C74801F08DFE01224FF4806172
:101CEC00C44801F087FE01224FF40061C14801F0A5
:101CFC0081FE00224FF48051BE4801F07BFE012290
:101D0C004FF40051BB4801F075FE01224FF48041A5
:101D1C00B84801F06FFE01224FF40041B54801F0C4
:101D2C0069FE7B68012B2FD100224FF48071B148E2
:101D3C0001F060FE01224FF40071AE4801F05AFE32
:101D4C0001224FF48061AB4801F054FE01224FF4A4
:101D5C000061A84801F04EFE00224FF48051A548C6
:101D6C0001F048FE01224FF40051A24801F042FE5E
:101D7C0001224FF480419F4801F03CFE01224FF4B8
:101D8C0000419C4801F036FE7B68022B2FD10022CB
:101D9C004FF48071974801F02DFE01224FF4007131
:101DAC00944801F027FE01224FF48061914801F024
:101DBC0021FE01224FF400618E4801F01BFE00222F
:101DCC004FF480518B4801F015FE01224FF4005165
:101DDC00884801F00FFE01224FF48041854801F044
:101DEC0009FE01224FF40041824801F003FE7B689A
:101DFC00032B2FD100224FF480717E4801F0FAFDA5
:101E0C0001224FF400717B4801F0F4FD01224FF4E4
:101E1C008061784801F0EEFD01224FF400617548B5
:101E2C0001F0E8FD00224FF48051724801F0E2FD10
:101E3C0001224FF400516F4801F0DCFD01224FF4F8
:101E4C0080416C4801F0D6FD01224FF400416948F5
:101E5C0001F0D0FD7B68042B2FD101224FF480714F
:101E6C00644801F0C7FD00224FF40071614801F095
:101E7C00C1FD01224FF480615E4801F0BBFD0122DF
:101E8C004FF400615B4801F0B5FD00224FF4805126
:101E9C00584801F0AFFD01224FF40051554801F0B4
:101EAC00A9FD01224FF48041524801F0A3FD01220B
:101EBC004FF400414F4801F09DFD7B68052B2FD15D
:101ECC0001224FF480714B4801F094FD01224FF434
:101EDC000071484801F08EFD00224FF480614548A6
:101EEC0001F088FD00224FF40061424801F082FDB0
:101EFC0000224FF480513F4801F07CFD00224FF44A
:101F0C0000513C4801F076FD00224FF480413948E5
:101F1C0001F070FD01224FF40041364801F06AFDDA
:101F2C007B68062B2FD101224FF48071314801F0D0
:101F3C0061FD01224FF400712E4801F05BFD01227E
:101F4C004FF480612B4801F055FD01224FF40061E4
:101F5C00284801F04FFD01224FF48051254801F033
:101F6C0049FD01224FF40051224801F043FD0122AA
:101F7C004FF480411F4801F03DFD01224FF4004118
:101F8C001C4801F037FD7B68072B2FD101224FF441
:101F9C008071184801F02EFD01224FF40071154894
:101FAC0001F028FD00224FF48061124801F022FD5F
:101FBC0000224FF400610F4801F01CFD00224FF489
:101FCC0080510C4801F016FD00224FF400510948D5
:101FDC0001F010FD00224FF48041064801F00AFD8B
:101FEC0001224FF40041034801F004FD00BF083703
:101FFC00BD4680BD000C014080B582B000AF78605A
:10200C007B68002B2FD100224FF48071CA4801F05D
:10201C00F1FC01224FF40071C74801F0EBFC0122E6
:10202C004FF48061C44801F0E5FC01224FF40061DB
:10203C00C14801F0DFFC00224FF48051BE4801F092
:10204C00D9FC01224FF40051BB4801F0D3FC012212
:10205C004FF48041B84801F0CDFC01224FF400410F
:10206C00B54801F0C7FC7B68012B2FD100224FF43F
:10207C008071B14801F0BEFC01224FF40071AE48F2
:10208C0001F0B8FC01224FF48061AB4801F0B2FCC6
:10209C0001224FF40061A84801F0ACFC00224FF47F
:1020AC008051A54801F0A6FC01224FF40051A24832
:1020BC0001F0A0FC01224FF480419F4801F09AFCF2
:1020CC0001224FF400419C4801F094FC7B68022BE8
:1020DC002FD100224FF48071974801F08BFC012224
:1020EC004FF40071944801F085FC01224FF480619B
:1020FC00914801F07FFC01224FF400618E4801F001
:10210C0079FC00224FF480518B4801F073FC0122C2
:10211C004FF40051884801F06DFC01224FF48041CE
:10212C00854801F067FC01224FF40041824801F020
:10213C0061FC7B68032B2FD100224FF480717E4809
:10214C0001F058FC01224FF400717B4801F052FC65
:10215C0001224FF48061784801F04CFC01224FF4CD
:10216C000061754801F046FC00224FF48051724822
:10217C0001F040FC01224FF400516F4801F03AFC91
:10218C0001224FF480416C4801F034FC01224FF4E1
:10219C000041694801F02EFC7B68042B2FD10022F2
:1021AC004FF48071644801F025FC01224FF400715A
:1021BC00614801F01FFC01224FF480615E4801F080
:1021CC0019FC01224FF400615B4801F013FC002262
:1021DC004FF48051584801F00DFC01224FF400518E
:1021EC00554801F007FC01224FF48041524801F0A0
:1021FC0001FC01224FF400414F4801F0FBFB7B68CE
:10220C00052B2FD101224FF480714B4801F0F2FBCA
:10221C0000224FF40071484801F0ECFB01224FF40E
:10222C008061454801F0E6FB01224FF40061424811
:10223C0001F0E0FB00224FF480513F4801F0DAFB43
:10224C0001224FF400513C4801F0D4FB01224FF421
:10225C008041394801F0CEFB01224FF40041364851
:10226C0001F0C8FB7B68062B2FD101224FF4807143
:10227C00314801F0BFFB01224FF400712E4801F0F0
:10228C00B9FB00224FF480612B4801F0B3FB002214
:10229C004FF40061284801F0ADFB00224FF480514F
:1022AC00254801F0A7FB00224FF40051224801F011
:1022BC00A1FB00224FF480411F4801F09BFB01223F
:1022CC004FF400411C4801F095FB7B68072B2FD184
:1022DC0001224FF48071184801F08CFB01224FF45D
:1022EC000071154801F086FB01224FF48061124801
:1022FC0001F080FB01224FF400610F4801F07AFBE2
:10230C0001224FF480510C4801F074FB01224FF470
:10231C000051094801F06EFB01224FF48041064840
:10232C0001F068FB01224FF40041034801F062FB0D
:10233C0000BF0837BD4680BD000C014080B582B09F
:10234C0000AF78607B68002B2FD101224FF4807195
:10235C00CA4801F04FFB00224FF40071C74801F04E
:10236C0049FB01224FF48061C44801F043FB012278
:10237C004FF40061C14801F03DFB00224FF4805145
:10238C00BE4801F037FB01224FF40051BB4801F06D
:10239C0031FB01224FF48041B84801F02BFB0122A4
:1023AC004FF40041B54801F025FB7B68012B2FD180
:1023BC0000224FF48071B14801F01CFB01224FF454
:1023CC000071AE4801F016FB01224FF48061AB485E
:1023DC0001F010FB01224FF40061A84801F00AFB48
:1023EC0000224FF48051A54801F004FB01224FF468
:1023FC000051A24801F0FEFA01224FF480419F489F
:10240C0001F0F8FA01224FF400419C4801F0F2FA75
:10241C007B68022B2FD100224FF48071974801F07A
:10242C00E9FA01224FF40071944801F0E3FA012219
:10243C004FF48061914801F0DDFA01224FF4006104
:10244C008E4801F0D7FA00224FF480518B4801F0EE
:10245C00D1FA01224FF40051884801F0CBFA012245
:10246C004FF48041854801F0C5FA01224FF4004138
:10247C00824801F0BFFA7B68032B2FD100224FF466
:10248C0080717E4801F0B6FA01224FF400717B484E
:10249C0001F0B0FA01224FF48061784801F0AAFAF9
:1024AC0001224FF40061754801F0A4FA00224FF4A8
:1024BC008051724801F09EFA01224FF400516F488E
:1024CC0001F098FA01224FF480416C4801F092FA25
:1024DC0001224FF40041694801F08CFA7B68042B0F
:1024EC002FD100224FF48071644801F083FA01224D
:1024FC004FF40071614801F07DFA01224FF48061C4
:10250C005E4801F077FA01224FF400615B4801F05C
:10251C0071FA00224FF48051584801F06BFA0122F5
:10252C004FF40051554801F065FA01224FF48041F7
:10253C00524801F05FFA01224FF400414F4801F07C
:10254C0059FA7B68052B2FD100224FF480714B4830
:10255C0001F050FA01224FF40071484801F04AFA98
:10256C0001224FF48061454801F044FA01224FF4F6
:10257C000061424801F03EFA00224FF480513F487E
:10258C0001F038FA01224FF400513C4801F032FAC4
:10259C0001224FF48041394801F02CFA01224FF40A
:1025AC000041364801F026FA7B68062B2FD1012218
:1025BC004FF48071314801F01DFA00224FF4007184
:1025CC002E4801F017FA01224FF480612B4801F0DC
:1025DC0011FA01224FF40061284801F00BFA002295
:1025EC004FF48051254801F005FA01224FF40051B7
:1025FC00224801F0FFF901224FF480411F4801F0FD
:10260C00F9F901224FF400411C4801F0F3F97B6801
:10261C00072B2FD101224FF48071184801F0EAF9F1
:10262C0001224FF40071154801F0E4F900224FF437
:10263C008061124801F0DEF900224FF400610F486E
:10264C0001F0D8F900224FF480510C4801F0D2F976
:10265C0000224FF40051094801F0CCF900224FF44C
:10266C008041064801F0C6F901224FF400410348AD
:10267C0001F0C0F900BF0837BD4680BD000C014019
:10268C0080B582B000AF7860012204214A4801F085
:10269C00B1F901220821484801F0ACF901224FF4AC
:1026AC008061454801F0A6F901224FF400614248CF
:1026BC0001F0A0F901224FF480513F4801F09AF942
:1026CC0001224FF400513C4801F094F901224FF4DF
:1026DC008041394801F08EF901224FF4004136480F
:1026EC0001F088F97B68072B60D801A252F823F01F
:1026FC001D2700082F270008412700085527000830
:10270C00692700087D27000891270008A5270008E5
:10271C007868FEF703F900220421274801F06AF9D2
:10272C0045E07868FEF7FAF800220821224801F00B
:10273C0061F93CE07868FEF7F1F800224FF4806113
:10274C001D4801F057F932E07868FEF7E7F80022EF
:10275C004FF40061184801F04DF928E07868FEF755
:10276C00DDF800224FF48051134801F043F91EE0CC
:10277C007868FEF7D3F800224FF400510E4801F0B0
:10278C0039F914E07868FEF7C9F800224FF480415B
:10279C00094801F02FF90AE07868FEF7BFF800222B
:1027AC004FF40041044801F025F900E000BF00BFE0
:1027BC000837BD4680BD00BF0008014080B582B01F
:1027CC0000AF7860012204214A4801F013F901227C
:1027DC000821484801F00EF901224FF48061454868
:1027EC0001F008F901224FF40061424801F002F9AE
:1027FC0001224FF480513F4801F0FCF801224FF4C4
:10280C0000513C4801F0F6F801224FF48041394860
:10281C0001F0F0F801224FF40041364801F0EAF8DB
:10282C007B68072B60D801A252F823F059280008C6
:10283C006B2800087D28000891280008A5280008AE
:10284C00B9280008CD280008E12800087868FEF7B0
:10285C0007FA00220421274801F0CCF845E07868FB
:10286C00FEF7FEF900220821224801F0C3F83CE0F3
:10287C007868FEF7F5F900224FF480611D4801F0ED
:10288C00B9F832E07868FEF7EBF900224FF40061FA
:10289C00184801F0AFF828E07868FEF7E1F900225B
:1028AC004FF48051134801F0A5F81EE07868FEF74C
:1028BC00D7F900224FF400510E4801F09BF814E0B8
:1028CC007868FEF7CDF900224FF48041094801F0F9
:1028DC0091F80AE07868FEF7C3F900224FF4004142
:1028EC00044801F087F800E000BF00BF0837BD4680
:1028FC0080BD00BF0008014080B582B000AF786099
:10290C00012204214A4801F075F8012208214848A7
:10291C0001F070F801224FF48061454801F06AF82B
:10292C0001224FF40061424801F064F801224FF497
:10293C0080513F4801F05EF801224FF400513C48B1
:10294C0001F058F801224FF48041394801F052F857
:10295C0001224FF40041364801F04CF87B68072BFC
:10296C0060D801A252F823F095290008A729000885
:10297C00B9290008CD290008E1290008F52900082B
:10298C00092A00081D2A00087868FEF70BFB0022B4
:10299C000421274801F02EF845E07868FEF702FB89
:1029AC0000220821224801F025F83CE07868FEF767
:1029BC00F9FA00224FF480611D4801F01BF832E057
:1029CC007868FEF7EFFA00224FF40061184801F026
:1029DC0011F828E07868FEF7E5FA00224FF48051F0
:1029EC00134801F007F81EE07868FEF7DBFA0022C6
:1029FC004FF400510E4800F0FDFF14E07868FEF72C
:102A0C00D1FA00224FF48041094800F0F3FF0AE0AC
:102A1C007868FEF7C7FA00224FF40041044800F032
:102A2C00E9FF00E000BF00BF0837BD4680BD00BF16
:102A3C000008014080B582B000AF7860012204210B
:102A4C004A4800F0D7FF01220821484800F0D2FF85
:102A5C0001224FF48061454800F0CCFF01224FF475
:102A6C000061424800F0C6FF01224FF480513F48FC
:102A7C0000F0C0FF01224FF400513C4800F0BAFFB7
:102A8C0001224FF48041394800F0B4FF01224FF489
:102A9C000041364800F0AEFF7B68072B60D801A2DE
:102AAC0052F823F0D12A0008E32A0008F52A00087E
:102ABC00092B00081D2B0008312B0008452B0008A2
:102ACC00592B00087868FEF70FFC002204212748D8
:102ADC0000F090FF45E07868FEF706FC0022082124
:102AEC00224800F087FF3CE07868FEF7FDFB0022EF
:102AFC004FF480611D4800F07DFF32E07868FEF7EE
:102B0C00F3FB00224FF40061184800F073FF28E03B
:102B1C007868FEF7E9FB00224FF48051134800F06F
:102B2C0069FF1EE07868FEF7DFFB00224FF40051CE
:102B3C000E4800F05FFF14E07868FEF7D5FB00222A
:102B4C004FF48041094800F055FF0AE07868FEF721
:102B5C00CBFB00224FF40041044800F04BFF00E097
:102B6C0000BF00BF0837BD4680BD00BF0008014054
:102B7C0080B582B000AF7860012204214A4800F091
:102B8C0039FF01220821484800F034FF01224FF49C
:102B9C008061454800F02EFF01224FF4006142484D
:102BAC0000F028FF01224FF480513F4800F022FF33
:102BBC0001224FF400513C4800F01CFF01224FF45D
:102BCC008041394800F016FF01224FF4004136488D
:102BDC0000F010FF7B68072B60D801A252F823F09D
:102BEC000D2C00081F2C0008312C0008452C000867
:102BFC00592C00086D2C0008812C0008952C00081D
:102C0C007868FEF713FD00220421274800F0F2FE3D
:102C1C0045E07868FEF70AFD00220821224800F002
:102C2C00E9FE3CE07868FEF701FD00224FF480617C
:102C3C001D4800F0DFFE32E07868FEF7F7FC00225A
:102C4C004FF40061184800F0D5FE28E07868FEF7D4
:102C5C00EDFC00224FF48051134800F0CBFE1EE037
:102C6C007868FEF7E3FC00224FF400510E4800F0A8
:102C7C00C1FE14E07868FEF7D9FC00224FF48041C5
:102C8C00094800F0B7FE0AE07868FEF7CFFC002296
:102C9C004FF40041044800F0ADFE00E000BF00BF5F
:102CAC000837BD4680BD00BF0008014080B582B02A
:102CBC0000AF7860012204214A4800F09BFE0122FB
:102CCC000821484800F096FE01224FF480614548E7
:102CDC0000F090FE01224FF40061424800F08AFEA1
:102CEC0001224FF480513F4800F084FE01224FF442
:102CFC0000513C4800F07EFE01224FF480413948DF
:102D0C0000F078FE01224FF40041364800F072FECC
:102D1C007B68072B60D801A252F823F0492D0008DC
:102D2C005B2D00086D2D0008812D0008952D0008E5
:102D3C00A92D0008BD2D0008D12D00087868FEF7DC
:102D4C0017FE00220421274800F054FE45E0786865
:102D5C00FEF70EFE00220821224800F04BFE3CE05C
:102D6C007868FEF705FE00224FF480611D4800F0E4
:102D7C0041FE32E07868FEF7FBFD00224FF4006163
:102D8C00184800F037FE28E07868FEF7F1FD0022C5
:102D9C004FF48051134800F02DFE1EE07868FEF7CA
:102DAC00E7FD00224FF400510E4800F023FE14E022
:102DBC007868FEF7DDFD00224FF48041094800F0F1
:102DCC0019FE0AE07868FEF7D3FD00224FF40041AB
:102DDC00044800F00FFE00E000BF00BF0837BD46FE
:102DEC0080BD00BF0008014080B582B000AF7860A4
:102DFC00012204214A4800F0FDFD01220821484827
:102E0C0000F0F8FD01224FF48061454800F0F2FD1E
:102E1C0001224FF40061424800F0ECFD01224FF416
:102E2C0080513F4800F0E6FD01224FF400513C4830
:102E3C0000F0E0FD01224FF48041394800F0DAFD4A
:102E4C0001224FF40041364800F0D4FD7B68072B7B
:102E5C0060D801A252F823F0852E0008972E0008A6
:102E6C00A92E0008BD2E0008D12E0008E52E000862
:102E7C00F92E00080D2F00087868FEF71BFF0022C2
:102E8C000421274800F0B6FD45E07868FEF712FFF4
:102E9C0000220821224800F0ADFD3CE07868FEF7E6
:102EAC0009FF00224FF480611D4800F0A3FD32E0C1
:102EBC007868FEF7FFFE00224FF40061184800F01E
:102ECC0099FD28E07868FEF7F5FE00224FF480515A
:102EDC00134800F08FFD1EE07868FEF7EBFE002231
:102EEC004FF400510E4800F085FD14E07868FEF7B1
:102EFC00E1FE00224FF48041094800F07BFD0AE01E
:102F0C007868FEF7D7FE00224FF40041044800F029
:102F1C0071FD00E000BF00BF0837BD4680BD00BF9B
:102F2C000008014080B582B000AF78600122042116
:102F3C004A4800F05FFD01220821484800F05AFD84
:102F4C0001224FF48061454800F054FD01224FF4FA
:102F5C000061424800F04EFD01224FF480513F4881
:102F6C0000F048FD01224FF400513C4800F042FDB6
:102F7C0001224FF48041394800F03CFD01224FF40E
:102F8C000041364800F036FD7B68072B60D801A263
:102F9C0052F823F0C12F0008D32F0008E52F0008AA
:102FAC00F92F00080D3000082130000835300008DA
:102FBC00493000087868FFF71FF8002204212748E1
:102FCC0000F018FD45E07868FFF716F8002208219C
:102FDC00224800F00FFD3CE07868FFF70DF8002266
:102FEC004FF480611D4800F005FD32E07868FFF772
:102FFC0003F800224FF40061184800F0FBFC28E0B5
:10300C007868FEF7F9FF00224FF48051134800F066
:10301C00F1FC1EE07868FEF7EFFF00224FF4005140
:10302C000E4800F0E7FC14E07868FEF7E5FF00229C
:10303C004FF48041094800F0DDFC0AE07868FEF7A7
:10304C00DBFF00224FF40041044800F0D3FC00E009
:10305C0000BF00BF0837BD4680BD00BF000801405F
:10306C0080B582B000AF7860012204214A4800F09C
:10307C00C1FC01220821484800F0BCFC01224FF49D
:10308C008061454800F0B6FC01224FF400614248D3
:10309C0000F0B0FC01224FF480513F4800F0AAFC34
:1030AC0001224FF400513C4800F0A4FC01224FF4E3
:1030BC008041394800F09EFC01224FF40041364813
:1030CC0000F098FC7B68072B60D801A252F823F023
:1030DC00FD3000080F31000821310008353100089F
:1030EC00493100085D310008713100088531000854
:1030FC007868FFF723F900220421274800F07AFCB6
:10310C0045E07868FFF71AF900220821224800F000
:10311C0071FC3CE07868FFF711F900224FF48061F4
:10312C001D4800F067FC32E07868FFF707F90022D1
:10313C004FF40061184800F05DFC28E07868FFF758
:10314C00FDF800224FF48051134800F053FC1EE0B0
:10315C007868FFF7F3F800224FF400510E4800F0A6
:10316C0049FC14E07868FFF7E9F800224FF480413D
:10317C00094800F03FFC0AE07868FFF7DFF800220E
:10318C004FF40041044800F035FC00E000BF00BFE4
:10319C000837BD4680BD00BF0008014080B582B035
:1031AC0000AF786000F046F800BF0837BD4680BD20
:1031BC0080B400AF72B600BFFEE7000080B483B0ED
:1031CC0000AF7860054A7B681360054B00221A60DB
:1031DC0000BF0C37BD4680BC704700BF50000020BC
:1031EC005400002080B483B000AF7860054A7B683F
:1031FC001360054B00221A6000BF0C37BD4680BC23
:10320C00704700BF580000205C00002080B483B0E1
:10321C0000AF7860054A7B681360054B00221A608A
:10322C0000BF0C37BD4680BC704700BF600000205B
:10323C006400002080B400AF194B1B68002B0BDD21
:10324C00174B1B68013B164A1360154B1B68002B70
:10325C0002DC144B01221A60134B1B68002B0BDD94
:10326C00114B1B68013B104A13600F4B1B68002B62
:10327C0002DC0E4B01221A600D4B1B68002B0BDD80
:10328C000B4B1B68013B0A4A1360094B1B68002B54
:10329C0002DC084B01221A6000BFBD4680BC70479F
:1032AC005000002054000020580000205C0000203A
:1032BC00600000206400002080B485B000AF154B86
:1032CC009B69144A43F001039361124B9B6903F011
:1032DC000103BB60BB680F4BDB690E4A43F08053A4
:1032EC00D3610C4BDB6903F080537B607B680A4B2A
:1032FC005B68FB60FB6823F0E063FB60FB6843F0FA
:10330C008063FB60044AFB68536000BF1437BD4602
:10331C0080BC7047001002400000014080B584B0B2
:10332C0000AF78607B681B68B3F1804F13D10C4BF6
:10333C00DB690B4A43F00103D361094BDB6903F0F2
:10334C000103FB60FB68002200211C2000F0A1F9A6
:10335C001C2000F0BAF900BF1037BD4680BD00BF7D
:10336C000010024080B400AFFEE780B400AFFEE76F
:10337C0080B400AFFEE780B400AFFEE780B400AFCE
:10338C00FEE780B400AF00BFBD4680BC704780B480
:10339C0000AF00BFBD4680BC704780B400AF00BF1B
:1033AC00BD4680BC704780B500AF00F07FF800BF11
:1033BC0080BD000080B500AF024800F0C5FF00BF23
:1033CC0080BD00BF6800002080B400AF00BFBD46C8
:1033DC0080BC7047FFF7F8FF0B480C490C4A0023E0
:1033EC0002E0D458C4500433C4188C42F9D3094AAF
:1033FC00094C002301E013600432A242FBD301F01C
:10340C00E3FAFCF79DFE7047000000202800002026
:10341C00704A000828000020B4000020FEE70000DD
:10342C0080B500AF084B1B68074A43F010031360CC
:10343C00032000F023F90F2000F008F8FFF73CFF01
:10344C000023184680BD00BF0020024080B582B02A
:10345C0000AF7860124B1A68124B1B7819464FF468
:10346C007A73B3FBF1F3B2FBF3F3184600F03BF9BC
:10347C000346002B01D001230EE07B680F2B0AD8EA
:10348C00002279684FF0FF3000F003F9064A7B68A0
:10349C001360002300E0012318460837BD4680BDA9
:1034AC001C000020240000202000002080B400AF6D
:1034BC00054B1B781A46054B1B681344034A1360D3
:1034CC0000BFBD4680BC704724000020B000002027
:1034DC0080B400AF024B1B681846BD4680BC7047D9
:1034EC00B000002080B485B000AF78607B6803F03A
:1034FC000703FB600C4BDB68BB60BA684FF6FF033D
:10350C001340BB60FB681A02BB68134343F0BF63F4
:10351C0043F40033BB60044ABB68D36000BF14376C
:10352C00BD4680BC704700BF00ED00E080B400AF2A
:10353C00044BDB681B0A03F007031846BD4680BC2E
:10354C00704700BF00ED00E080B483B000AF0346CD
:10355C00FB7197F90730002B0BDBFB7903F01F0293
:10356C00064997F907305B09012000FA02F241F88D
:10357C00232000BF0C37BD4680BC704700E100E043
:10358C0080B483B000AF03463960FB7197F9073004
:10359C00002B0ADB3B68DAB20C4997F907301201B1
:1035AC00D2B20B4483F800230AE03B68DAB2084934
:1035BC00FB7903F00F03043B1201D2B20B441A76D1
:1035CC0000BF0C37BD4680BC704700BF00E100E077
:1035DC0000ED00E080B489B000AFF860B9607A60AB
:1035EC00FB6803F00703FB61FB69C3F10703042BC2
:1035FC0028BF0423BB61FB690433062B02D9FB698A
:10360C00033B00E000237B614FF0FF32BB6902FA01
:10361C0003F3DA43BB681A407B699A404FF0FF31E1
:10362C007B6901FA03F3D9437B680B4013431846BB
:10363C002437BD4680BC704780B582B000AF78603F
:10364C007B68013BB3F1807F01D301230FE00A4A71
:10365C007B68013B53600F214FF0FF30FFF790FF69
:10366C00054B00229A60044B07221A60002318466F
:10367C000837BD4680BD00BF10E000E080B582B0C9
:10368C0000AF78607868FFF72DFF00BF0837BD46A4
:10369C0080BD80B586B000AF0346B9607A60FB731D
:1036AC0000237B61FFF742FF78617A68B96878691B
:1036BC00FFF790FF024697F90F3011461846FFF7B7
:1036CC005FFF00BF1837BD4680BD80B582B000AF2C
:1036DC000346FB7197F907301846FFF735FF00BF1B
:1036EC000837BD4680BD80B582B000AF7860786881
:1036FC00FFF7A2FF034618460837BD4680BD000001
:10370C0080B48BB000AF7860396000237B620023FB
:10371C003B6248E101227B6A02FA03F3FB613B68DE
:10372C001B68FA691340BB61BA69FB699A4240F0A5
:10373C0037813B685B68A34A93425ED0A14A9342AF
:10374C0075D8A14A934258D09F4A93426FD89F4A4A
:10375C00934252D09D4A934269D89D4A93424CD091
:10376C009B4A934263D89B4A934246D0994A9342D0
:10377C005DD8122B2AD8122B59D801A252F823F05B
:10378C0007380008E1370008F3370008353800081F
:10379C003B3800083B3800083B3800083B38000831
:1037AC003B3800083B3800083B3800083B38000821
:1037BC003B3800083B3800083B3800083B38000811
:1037CC003B380008E9370008FD370008824A93426D
:1037DC0013D02CE03B68DB683B6229E03B68DB687C
:1037EC0004333B6224E03B68DB6808333B621FE038
:1037FC003B68DB680C333B621AE03B689B68002B30
:10380C0002D104233B6213E03B689B68012B05D17A
:10381C0008233B627B68FA691A6109E008233B6262
:10382C007B68FA695A6103E000233B6200E000BF49
:10383C00BB69FF2B01D87B6801E07B6804337B619B
:10384C00BB69FF2B02D87B6A9B0002E07B6A083BBA
:10385C009B003B617B691A680F213B6901FA03F3FA
:10386C00DB431A40396A3B6901FA03F31A437B695B
:10387C001A603B685B6803F08053002B00F090806B
:10388C00564B9B69554A43F001039361534B9B691B
:10389C0003F00103BB60BB68514A7B6A9B0802338F
:1038AC0052F82330FB607B6A03F003039B000F226A
:1038BC0002FA03F3DB43FA681340FB607B68494A66
:1038CC0093420DD07B68484A934207D07B68474AA5
:1038DC00934201D1022304E0032302E0012300E020
:1038EC0000237A6A02F0030292009340FA681343B1
:1038FC00FB603B497B6A9B080233FA6841F8232042
:10390C003B685B6803F48013002B06D0384B9A6835
:10391C003749BB6913438B6006E0354B9A68BB692A
:10392C00DB43334913408B603B685B6803F4001343
:10393C00002B06D02E4BDA682D49BB691343CB60A4
:10394C0006E02B4BDA68BB69DB4329491340CB609B
:10395C003B685B6803F40033002B06D0244B5A6899
:10396C002349BB6913434B6006E0214B5A68BB6982
:10397C00DB431F4913404B603B685B6803F48033A7
:10398C00002B06D01A4B1A681949BB6913430B60FC
:10399C0006E0174B1A68BB69DB43154913400B60F3
:1039AC007B6A01337B623B681A687B6A22FA03F3F9
:1039BC00002B7FF4AFAE00BF00BF2C37BD4680BCE0
:1039CC00704700BF000032100000311000002210C0
:1039DC000000211000001210000011100010024015
:1039EC000000014000080140000C014000100140A3
:1039FC000004014080B483B000AF78600B467B803C
:103A0C0013467B707B78002B03D07A887B681A6115
:103A1C0003E07B881A047B681A6100BF0C37BD4633
:103A2C0080BC704780B485B000AF78600B467B805B
:103A3C007B68DB68FB607A88FB6813401A04FB68C0
:103A4C00D9437B880B401A437B681A6100BF14373B
:103A5C00BD4680BC7047000080B586B000AF786072
:103A6C007B68002B01D101236CE27B681B6803F09F
:103A7C000103002B00F08780924B5B6803F00C0372
:103A8C00042B0CD08F4B5B6803F00C03082B12D16A
:103A9C008C4B5B6803F48033B3F5803F0BD1894BBF
:103AAC001B6803F40033002B6CD07B685B68002B25
:103ABC0068D1012346E27B685B68B3F5803F06D191
:103ACC00804B1B687F4A43F4803313602EE07B6885
:103ADC005B68002B0CD17B4B1B687A4A23F4803338
:103AEC001360784B1B68774A23F4802313601DE026
:103AFC007B685B68B3F5A02F0CD1724B1B68714AC5
:103B0C0043F4802313606F4B1B686E4A43F480337D
:103B1C0013600BE06B4B1B686A4A23F48033136011
:103B2C00684B1B68674A23F4802313607B685B68CF
:103B3C00002B13D0FFF7CCFC386108E0FFF7C8FC72
:103B4C0002463B69D31A642B01D90323FAE15D4B7E
:103B5C001B6803F40033002BF0D014E0FFF7B8FC23
:103B6C00386108E0FFF7B4FC02463B69D31A642BBA
:103B7C0001D90323E6E1534B1B6803F40033002BFC
:103B8C00F0D100E000BF7B681B6803F00203002B40
:103B9C0063D04C4B5B6803F00C03002B0BD0494BF0
:103BAC005B6803F00C03082B1CD1464B5B6803F4D9
:103BBC008033002B16D1434B1B6803F00203002B00
:103BCC0005D07B681B69012B01D00123BAE13D4B69
:103BDC001B6823F0F8027B685B69DB0039491343EF
:103BEC000B603AE07B681B69002B20D0364B01221E
:103BFC001A60FFF76DFC386108E0FFF769FC0246BC
:103C0C003B69D31A022B01D903239BE12D4B1B6873
:103C1C0003F00203002BF0D02A4B1B6823F0F802B0
:103C2C007B685B69DB00274913430B6015E0264B6F
:103C3C0000221A60FFF74CFC386108E0FFF748FCE3
:103C4C0002463B69D31A022B01D903237AE11D4B9F
:103C5C001B6803F00203002BF0D17B681B6803F098
:103C6C000803002B3AD07B689B69002B19D0174BAB
:103C7C0001221A60FFF72CFC386108E0FFF728FCE2
:103C8C0002463B69D31A022B01D903235AE10D4B8F
:103C9C005B6A03F00203002BF0D0012000F09AFACB
:103CAC001CE00A4B00221A60FFF712FC38610FE08F
:103CBC00FFF70EFC02463B69D31A022B08D90323EB
:103CCC0040E100BF0010024000004242800442422A
:103CDC009E4B5B6A03F00203002BE9D17B681B68E7
:103CEC0003F00403002B00F0A6800023FB75974B18
:103CFC00DB6903F08053002B0DD1944BDB69934AA5
:103D0C0043F08053D361914BDB6903F08053BB606C
:103D1C00BB680123FB758E4B1B6803F48073002B6F
:103D2C0018D18B4B1B688A4A43F480731360FFF7DE
:103D3C00CFFB386108E0FFF7CBFB02463B69D31A97
:103D4C00642B01D90323FDE0814B1B6803F48073C2
:103D5C00002BF0D07B68DB68012B06D17B4B1B6AF8
:103D6C007A4A43F0010313622DE07B68DB68002B79
:103D7C000CD1764B1B6A754A23F001031362734B0B
:103D8C001B6A724A23F0040313621CE07B68DB6835
:103D9C00052B0CD16D4B1B6A6C4A43F00403136268
:103DAC006A4B1B6A694A43F0010313620BE0674BD1
:103DBC001B6A664A23F001031362644B1B6A634A55
:103DCC0023F0040313627B68DB68002B15D0FFF72C
:103DDC007FFB38610AE0FFF77BFB02463B69D31A95
:103DEC0041F28832934201D90323ABE0574B1B6A53
:103DFC0003F00203002BEED014E0FFF769FB3861EF
:103E0C000AE0FFF765FB02463B69D31A41F28832A0
:103E1C00934201D9032395E04C4B1B6A03F0020338
:103E2C00002BEED1FB7D012B05D1484BDB69474ABA
:103E3C0023F08053D3617B68DB69002B00F0818019
:103E4C00424B5B6803F00C03082B61D07B68DB6989
:103E5C00022B46D13F4B00221A60FFF739FB386129
:103E6C0008E0FFF735FB02463B69D31A022B01D958
:103E7C00032367E0354B1B6803F00073002BF0D174
:103E8C007B681B6AB3F5803F08D1304B5B6823F429
:103E9C0000327B689B682D4913434B602B4B5B684E
:103EAC0023F474127B68196A7B685B6A0B4327499D
:103EBC0013434B60274B01221A60FFF709FB386153
:103ECC0008E0FFF705FB02463B69D31A022B01D928
:103EDC00032337E01D4B1B6803F00073002BF0D05D
:103EEC002FE01C4B00221A60FFF7F2FA386108E051
:103EFC00FFF7EEFA02463B69D31A022B01D90323D2
:103F0C0020E0124B1B6803F00073002BF0D118E07B
:103F1C007B68DB69012B01D1012313E00B4B5B6840
:103F2C00FB60FB6803F480327B681B6A9A4206D103
:103F3C00FB6803F470127B685B6A9A4201D0012320
:103F4C0000E0002318461837BD4680BD0010024023
:103F5C00007000406000424280B584B000AF7860D1
:103F6C0039607B68002B01D10123D0E06A4B1B68C0
:103F7C0003F007033A689A4210D9674B1B6823F089
:103F8C00070265493B6813430B60634B1B6803F0E6
:103F9C0007033A689A4201D00123B8E07B681B689A
:103FAC0003F00203002B20D07B681B6803F0040392
:103FBC00002B05D0594B5B68584A43F4E0635360BF
:103FCC007B681B6803F00803002B05D0534B5B6820
:103FDC00524A43F460535360504B5B6823F0F00239
:103FEC007B689B684D4913434B607B681B6803F0EF
:103FFC000103002B40D07B685B68012B07D1474B3A
:10400C001B6803F40033002B15D101237FE07B6880
:10401C005B68022B07D1414B1B6803F00073002B2C
:10402C0009D1012373E03D4B1B6803F00203002B05
:10403C0001D101236BE0394B5B6823F003027B68F1
:10404C005B68364913434B60FFF742FAF8600AE0AD
:10405C00FFF73EFA0246FB68D31A41F288329342CC
:10406C0001D9032353E02D4B5B6803F00C027B68F2
:10407C005B689B009A42EBD1274B1B6803F007034C
:10408C003A689A4210D2244B1B6823F0070222494B
:10409C003B6813430B60204B1B6803F007033A6823
:1040AC009A4201D0012332E07B681B6803F00403C1
:1040BC00002B08D0194B5B6823F4E0627B68DB684B
:1040CC00164913434B607B681B6803F00803002BF5
:1040DC0009D0124B5B6823F460527B681B69DB00D0
:1040EC000E4913434B6000F021F802460B4B5B6802
:1040FC001B0903F00F030A49CB5C22FA03F3094AAC
:10410C001360094B1B681846FFF7A0F900231846EB
:10411C001037BD4680BD00BF002002400010024099
:10412C00444A00081C0000202000002080B487B006
:10413C0000AF0023FB600023BB6000237B610023E6
:10414C007B6000233B611E4B5B68FB60FB6803F0EC
:10415C000C03042B02D0082B03D027E0194B3B6136
:10416C0027E0FB689B0C03F00F03174AD35C7B60C2
:10417C00FB6803F48033002B10D0114B5B685B0C95
:10418C0003F00103114AD35CBB607B680D4A02FB50
:10419C0003F2BB68B2FBF3F37B6104E07B680C4A6F
:1041AC0002FB03F37B617B693B6102E0054B3B61E6
:1041BC0000BF3B6918461C37BD4680BC704700BF2A
:1041CC000010024000127A00544A0008644A0008A9
:1041DC0000093D0080B485B000AF78600A4B1B68C5
:1041EC000A4AA2FB03235B0A7A6802FB03F3FB6017
:1041FC0000BFFB685A1EFA60002BF9D100BF00BF4C
:10420C001437BD4680BC70471C000020D34D621093
:10421C0080B582B000AF78607B68002B01D10123A0
:10422C0041E07B6893F83D30DBB2002B06D17B6814
:10423C00002283F83C207868FFF770F87B68022234
:10424C0083F83D207B681A687B6804331946104656
:10425C0000F056FA7B68012283F846207B68012225
:10426C0083F83E207B68012283F83F207B68012283
:10427C0083F840207B68012283F841207B6801226F
:10428C0083F842207B68012283F843207B6801225B
:10429C0083F844207B68012283F845207B68012247
:1042AC0083F83D20002318460837BD4680BD00002A
:1042BC0080B485B000AF78607B6893F83D30DBB29A
:1042CC00012B01D0012335E07B68022283F83D20CD
:1042DC007B681B68DA687B681B6842F00102DA6055
:1042EC007B681B68164A934209D07B681B68B3F144
:1042FC00804F04D07B681B68124A934211D17B68B3
:10430C001B689B6803F00703FB60FB68062B10D04F
:10431C007B681B681A687B681B6842F001021A6094
:10432C0007E07B681B681A687B681B6842F0010217
:10433C001A60002318461437BD4680BC704700BF76
:10434C00002C01400004004080B584B000AF7860C0
:10435C007B681B68DB68FB607B681B681B69BB6048
:10436C00BB6803F00203002B20D0FB6803F00203B0
:10437C00002B1BD07B681B686FF002021A617B68F4
:10438C0001221A777B681B689B6903F00303002BDF
:10439C0003D0786800F098F905E0786800F08BF9A4
:1043AC00786800F09AF97B6800221A77BB6803F0F2
:1043BC000403002B20D0FB6803F00403002B1BD05C
:1043CC007B681B686FF004021A617B6802221A7703
:1043DC007B681B689B6903F44073002B03D07868DF
:1043EC0000F072F905E0786800F065F9786800F083
:1043FC0074F97B6800221A77BB6803F00803002B62
:10440C0020D0FB6803F00803002B1BD07B681B68D3
:10441C006FF008021A617B6804221A777B681B68AC
:10442C00DB6903F00303002B03D0786800F04CF930
:10443C0005E0786800F03FF9786800F04EF97B6889
:10444C0000221A77BB6803F01003002B20D0FB6806
:10445C0003F01003002B1BD07B681B686FF010025D
:10446C001A617B6808221A777B681B68DB6903F486
:10447C004073002B03D0786800F026F905E07868CB
:10448C0000F019F9786800F028F97B6800221A7797
:10449C00BB6803F00103002B0CD0FB6803F0010395
:1044AC00002B07D07B681B686FF001021A617868DB
:1044BC00FEF774FEBB6803F08003002B0CD0FB6886
:1044CC0003F08003002B07D07B681B686FF0800221
:1044DC001A61786800F06FFABB6803F04003002B98
:1044EC000CD0FB6803F04003002B07D07B681B68E3
:1044FC006FF040021A61786800F0F8F8BB6803F0BE
:10450C002003002B0CD0FB6803F02003002B07D0FA
:10451C007B681B686FF020021A61786800F042FA21
:10452C0000BF1037BD4680BD80B584B000AF786049
:10453C0039600023FB737B6893F83C30012B01D16D
:10454C000223B4E07B68012283F83C207B680222C2
:10455C0083F83D207B681B689B68BB60BB6823F0BD
:10456C007703BB60BB6823F47F43BB607B681B682D
:10457C00BA689A603B681B68B3F5005F3ED0B3F530
:10458C00005F00F28780B3F5805F00F08680B3F5A2
:10459C00805F7FD8702B1AD0702B7BD8602B50D0BB
:1045AC00602B77D8502B3CD0502B73D8402B58D045
:1045BC00402B6FD8302B64D0302B6BD8202B60D095
:1045CC00202B67D8002B5CD0102B5AD062E07B6874
:1045DC0018683B6899683B685A683B68DB6800F070
:1045EC006AF97B681B689B68BB60BB6843F0770308
:1045FC00BB607B681B68BA689A604FE07B68186880
:10460C003B6899683B685A683B68DB6800F053F973
:10461C007B681B689A687B681B6842F480429A60CE
:10462C003CE07B6818683B6859683B68DB681A4655
:10463C0000F0CAF87B681B685021184600F021F97D
:10464C002CE07B6818683B6859683B68DB681A4645
:10465C0000F0E8F87B681B686021184600F011F93F
:10466C001CE07B6818683B6859683B68DB681A4635
:10467C0000F0AAF87B681B684021184600F001F98D
:10468C000CE07B681A683B681B681946104600F002
:10469C00F8F803E00123FB7300E000BF7B68012204
:1046AC0083F83D207B68002283F83C20FB7B184676
:1046BC001037BD4680BD80B483B000AF786000BFBA
:1046CC000C37BD4680BC704780B483B000AF7860B7
:1046DC0000BF0C37BD4680BC704780B483B000AFC0
:1046EC00786000BF0C37BD4680BC704780B483B087
:1046FC0000AF786000BF0C37BD4680BC704700002F
:10470C0080B485B000AF786039607B681B68FB6053
:10471C007B682B4A934207D07B68B3F1804F03D060
:10472C007B68284A934208D1FB6823F07003FB6036
:10473C003B685B68FA681343FB607B68204A9342D2
:10474C0007D07B68B3F1804F03D07B681D4A93423E
:10475C0008D1FB6823F44073FB603B68DB68FA68A4
:10476C001343FB60FB6823F080023B685B691343D7
:10477C00FB607B68FA681A603B689A687B68DA624F
:10478C003B681A687B689A627B680D4A934203D136
:10479C003B681A697B681A637B6801225A617B68E3
:1047AC001B6903F00103002B05D07B681B6923F008
:1047BC0001027B681A6100BF1437BD4680BC70478C
:1047CC00002C01400004004080B487B000AFF860BA
:1047DC00B9607A60FB681B6A7B61FB681B6A23F01B
:1047EC000102FB681A62FB689B693B613B6923F021
:1047FC00F0033B617B681B013A6913433B617B69A6
:10480C0023F00A037B617A69BB6813437B61FB6805
:10481C003A699A61FB687A691A6200BF1C37BD4617
:10482C0080BC704780B487B000AFF860B9607A6024
:10483C00FB681B6A7B61FB681B6A23F01002FB6838
:10484C001A62FB689B693B613B6923F470433B61D3
:10485C007B681B033A6913433B617B6923F0A0031C
:10486C007B61BB681B017A6913437B61FB683A6906
:10487C009A61FB687A691A6200BF1C37BD4680BC1E
:10488C00704780B485B000AF786039607B689B68F6
:10489C00FB60FB6823F07003FB603A68FB68134312
:1048AC0043F00703FB607B68FA689A6000BF14371B
:1048BC00BD4680BC704780B487B000AFF860B9606B
:1048CC007A603B60FB689B687B617B6923F47F4368
:1048DC007B613B681A027B681A43BB6813437A6995
:1048EC0013437B61FB687A699A6000BF1C37BD4635
:1048FC0080BC704780B485B000AF786039607B684D
:10490C0093F83C30012B01D1022341E07B6801225A
:10491C0083F83C207B68022283F83D207B681B686F
:10492C005B68FB607B681B689B68BB60FB6823F063
:10493C007003FB603B681B68FA681343FB607B6881
:10494C001B68FA685A607B681B68144A934209D04A
:10495C007B681B68B3F1804F04D07B681B68104ADE
:10496C0093420CD1BB6823F08003BB603B685B684F
:10497C00BA681343BB607B681B68BA689A607B6833
:10498C00012283F83D207B68002283F83C20002321
:10499C0018461437BD4680BC704700BF002C014040
:1049AC000004004080B483B000AF786000BF0C37C7
:1049BC00BD4680BC704780B483B000AF786000BF48
:1049CC000C37BD4680BC704770B500260C4D0D4CA5
:1049DC00641BA410A64209D100F022F800260A4D4F
:1049EC000A4C641BA410A64205D170BD55F8043BBB
:1049FC0098470136EEE755F8043B98470136F2E745
:104A0C00684A0008684A0008684A00086C4A0008AE
:104A1C0003460244934200D1704703F8011BF9E7A7
:104A2C00F8B500BFF8BC08BC9E467047F8B500BF8F
:084A3C00F8BC08BC9E4670475F
:104A4400000000000000000001020304060708093A
:104A540002030405060708090A0B0C0D0E0F1010BB
:044A6400010200004B
:044A68003101000810
:044A6C000D01000830
:104A70000100000005000000000000000800000028
:104A80000F000000080000003200000000127A0051
:084A900010000000010000000D
:04000005080033E1DB
:00000001FF
